{
  "contractName": "BPool",
  "abi": [
    {
      "inputs": [],
      "payable": false,
      "stateMutability": "nonpayable",
      "type": "constructor"
    },
    {
      "anonymous": false,
      "inputs": [
        {
          "indexed": true,
          "internalType": "address",
          "name": "src",
          "type": "address"
        },
        {
          "indexed": true,
          "internalType": "address",
          "name": "dst",
          "type": "address"
        },
        {
          "indexed": false,
          "internalType": "uint256",
          "name": "amt",
          "type": "uint256"
        }
      ],
      "name": "Approval",
      "type": "event"
    },
    {
      "anonymous": true,
      "inputs": [
        {
          "indexed": true,
          "internalType": "bytes4",
          "name": "sig",
          "type": "bytes4"
        },
        {
          "indexed": true,
          "internalType": "address",
          "name": "caller",
          "type": "address"
        },
        {
          "indexed": false,
          "internalType": "bytes",
          "name": "data",
          "type": "bytes"
        }
      ],
      "name": "LOG_CALL",
      "type": "event"
    },
    {
      "anonymous": false,
      "inputs": [
        {
          "indexed": true,
          "internalType": "address",
          "name": "caller",
          "type": "address"
        },
        {
          "indexed": true,
          "internalType": "address",
          "name": "tokenOut",
          "type": "address"
        },
        {
          "indexed": false,
          "internalType": "uint256",
          "name": "tokenAmountOut",
          "type": "uint256"
        }
      ],
      "name": "LOG_EXIT",
      "type": "event"
    },
    {
      "anonymous": false,
      "inputs": [
        {
          "indexed": true,
          "internalType": "address",
          "name": "caller",
          "type": "address"
        },
        {
          "indexed": true,
          "internalType": "address",
          "name": "tokenIn",
          "type": "address"
        },
        {
          "indexed": false,
          "internalType": "uint256",
          "name": "tokenAmountIn",
          "type": "uint256"
        }
      ],
      "name": "LOG_JOIN",
      "type": "event"
    },
    {
      "anonymous": false,
      "inputs": [
        {
          "indexed": true,
          "internalType": "address",
          "name": "caller",
          "type": "address"
        },
        {
          "indexed": true,
          "internalType": "address",
          "name": "tokenIn",
          "type": "address"
        },
        {
          "indexed": true,
          "internalType": "address",
          "name": "tokenOut",
          "type": "address"
        },
        {
          "indexed": false,
          "internalType": "uint256",
          "name": "tokenAmountIn",
          "type": "uint256"
        },
        {
          "indexed": false,
          "internalType": "uint256",
          "name": "tokenAmountOut",
          "type": "uint256"
        }
      ],
      "name": "LOG_SWAP",
      "type": "event"
    },
    {
      "anonymous": false,
      "inputs": [
        {
          "indexed": false,
          "internalType": "uint256",
          "name": "amount",
          "type": "uint256"
        }
      ],
      "name": "LogUint",
      "type": "event"
    },
    {
      "anonymous": false,
      "inputs": [
        {
          "indexed": true,
          "internalType": "address",
          "name": "src",
          "type": "address"
        },
        {
          "indexed": true,
          "internalType": "address",
          "name": "dst",
          "type": "address"
        },
        {
          "indexed": false,
          "internalType": "uint256",
          "name": "amt",
          "type": "uint256"
        }
      ],
      "name": "Transfer",
      "type": "event"
    },
    {
      "constant": true,
      "inputs": [],
      "name": "BONE",
      "outputs": [
        {
          "internalType": "uint256",
          "name": "",
          "type": "uint256"
        }
      ],
      "payable": false,
      "stateMutability": "view",
      "type": "function"
    },
    {
      "constant": true,
      "inputs": [],
      "name": "BPOW_PRECISION",
      "outputs": [
        {
          "internalType": "uint256",
          "name": "",
          "type": "uint256"
        }
      ],
      "payable": false,
      "stateMutability": "view",
      "type": "function"
    },
    {
      "constant": true,
      "inputs": [],
      "name": "EXIT_FEE",
      "outputs": [
        {
          "internalType": "uint256",
          "name": "",
          "type": "uint256"
        }
      ],
      "payable": false,
      "stateMutability": "view",
      "type": "function"
    },
    {
      "constant": true,
      "inputs": [],
      "name": "INIT_POOL_SUPPLY",
      "outputs": [
        {
          "internalType": "uint256",
          "name": "",
          "type": "uint256"
        }
      ],
      "payable": false,
      "stateMutability": "view",
      "type": "function"
    },
    {
      "constant": true,
      "inputs": [],
      "name": "MAX_BOUND_TOKENS",
      "outputs": [
        {
          "internalType": "uint256",
          "name": "",
          "type": "uint256"
        }
      ],
      "payable": false,
      "stateMutability": "view",
      "type": "function"
    },
    {
      "constant": true,
      "inputs": [],
      "name": "MAX_BPOW_BASE",
      "outputs": [
        {
          "internalType": "uint256",
          "name": "",
          "type": "uint256"
        }
      ],
      "payable": false,
      "stateMutability": "view",
      "type": "function"
    },
    {
      "constant": true,
      "inputs": [],
      "name": "MAX_FEE",
      "outputs": [
        {
          "internalType": "uint256",
          "name": "",
          "type": "uint256"
        }
      ],
      "payable": false,
      "stateMutability": "view",
      "type": "function"
    },
    {
      "constant": true,
      "inputs": [],
      "name": "MAX_IN_RATIO",
      "outputs": [
        {
          "internalType": "uint256",
          "name": "",
          "type": "uint256"
        }
      ],
      "payable": false,
      "stateMutability": "view",
      "type": "function"
    },
    {
      "constant": true,
      "inputs": [],
      "name": "MAX_OUT_RATIO",
      "outputs": [
        {
          "internalType": "uint256",
          "name": "",
          "type": "uint256"
        }
      ],
      "payable": false,
      "stateMutability": "view",
      "type": "function"
    },
    {
      "constant": true,
      "inputs": [],
      "name": "MAX_TOTAL_WEIGHT",
      "outputs": [
        {
          "internalType": "uint256",
          "name": "",
          "type": "uint256"
        }
      ],
      "payable": false,
      "stateMutability": "view",
      "type": "function"
    },
    {
      "constant": true,
      "inputs": [],
      "name": "MAX_WEIGHT",
      "outputs": [
        {
          "internalType": "uint256",
          "name": "",
          "type": "uint256"
        }
      ],
      "payable": false,
      "stateMutability": "view",
      "type": "function"
    },
    {
      "constant": true,
      "inputs": [],
      "name": "MIN_BALANCE",
      "outputs": [
        {
          "internalType": "uint256",
          "name": "",
          "type": "uint256"
        }
      ],
      "payable": false,
      "stateMutability": "view",
      "type": "function"
    },
    {
      "constant": true,
      "inputs": [],
      "name": "MIN_BOUND_TOKENS",
      "outputs": [
        {
          "internalType": "uint256",
          "name": "",
          "type": "uint256"
        }
      ],
      "payable": false,
      "stateMutability": "view",
      "type": "function"
    },
    {
      "constant": true,
      "inputs": [],
      "name": "MIN_BPOW_BASE",
      "outputs": [
        {
          "internalType": "uint256",
          "name": "",
          "type": "uint256"
        }
      ],
      "payable": false,
      "stateMutability": "view",
      "type": "function"
    },
    {
      "constant": true,
      "inputs": [],
      "name": "MIN_FEE",
      "outputs": [
        {
          "internalType": "uint256",
          "name": "",
          "type": "uint256"
        }
      ],
      "payable": false,
      "stateMutability": "view",
      "type": "function"
    },
    {
      "constant": true,
      "inputs": [],
      "name": "MIN_WEIGHT",
      "outputs": [
        {
          "internalType": "uint256",
          "name": "",
          "type": "uint256"
        }
      ],
      "payable": false,
      "stateMutability": "view",
      "type": "function"
    },
    {
      "constant": true,
      "inputs": [
        {
          "internalType": "address",
          "name": "src",
          "type": "address"
        },
        {
          "internalType": "address",
          "name": "dst",
          "type": "address"
        }
      ],
      "name": "allowance",
      "outputs": [
        {
          "internalType": "uint256",
          "name": "",
          "type": "uint256"
        }
      ],
      "payable": false,
      "stateMutability": "view",
      "type": "function"
    },
    {
      "constant": false,
      "inputs": [
        {
          "internalType": "address",
          "name": "dst",
          "type": "address"
        },
        {
          "internalType": "uint256",
          "name": "amt",
          "type": "uint256"
        }
      ],
      "name": "approve",
      "outputs": [
        {
          "internalType": "bool",
          "name": "",
          "type": "bool"
        }
      ],
      "payable": false,
      "stateMutability": "nonpayable",
      "type": "function"
    },
    {
      "constant": true,
      "inputs": [
        {
          "internalType": "address",
          "name": "whom",
          "type": "address"
        }
      ],
      "name": "balanceOf",
      "outputs": [
        {
          "internalType": "uint256",
          "name": "",
          "type": "uint256"
        }
      ],
      "payable": false,
      "stateMutability": "view",
      "type": "function"
    },
    {
      "constant": true,
      "inputs": [
        {
          "internalType": "uint256",
          "name": "tokenBalanceIn",
          "type": "uint256"
        },
        {
          "internalType": "uint256",
          "name": "tokenWeightIn",
          "type": "uint256"
        },
        {
          "internalType": "uint256",
          "name": "tokenBalanceOut",
          "type": "uint256"
        },
        {
          "internalType": "uint256",
          "name": "tokenWeightOut",
          "type": "uint256"
        },
        {
          "internalType": "uint256",
          "name": "tokenAmountOut",
          "type": "uint256"
        },
        {
          "internalType": "uint256",
          "name": "swapFee",
          "type": "uint256"
        }
      ],
      "name": "calcInGivenOut",
      "outputs": [
        {
          "internalType": "uint256",
          "name": "tokenAmountIn",
          "type": "uint256"
        }
      ],
      "payable": false,
      "stateMutability": "pure",
      "type": "function"
    },
    {
      "constant": true,
      "inputs": [
        {
          "internalType": "uint256",
          "name": "tokenBalanceIn",
          "type": "uint256"
        },
        {
          "internalType": "uint256",
          "name": "tokenWeightIn",
          "type": "uint256"
        },
        {
          "internalType": "uint256",
          "name": "tokenBalanceOut",
          "type": "uint256"
        },
        {
          "internalType": "uint256",
          "name": "tokenWeightOut",
          "type": "uint256"
        },
        {
          "internalType": "uint256",
          "name": "tokenAmountIn",
          "type": "uint256"
        },
        {
          "internalType": "uint256",
          "name": "swapFee",
          "type": "uint256"
        }
      ],
      "name": "calcOutGivenIn",
      "outputs": [
        {
          "internalType": "uint256",
          "name": "tokenAmountOut",
          "type": "uint256"
        }
      ],
      "payable": false,
      "stateMutability": "pure",
      "type": "function"
    },
    {
      "constant": true,
      "inputs": [
        {
          "internalType": "uint256",
          "name": "tokenBalanceOut",
          "type": "uint256"
        },
        {
          "internalType": "uint256",
          "name": "tokenWeightOut",
          "type": "uint256"
        },
        {
          "internalType": "uint256",
          "name": "poolSupply",
          "type": "uint256"
        },
        {
          "internalType": "uint256",
          "name": "totalWeight",
          "type": "uint256"
        },
        {
          "internalType": "uint256",
          "name": "tokenAmountOut",
          "type": "uint256"
        },
        {
          "internalType": "uint256",
          "name": "swapFee",
          "type": "uint256"
        }
      ],
      "name": "calcPoolInGivenSingleOut",
      "outputs": [
        {
          "internalType": "uint256",
          "name": "poolAmountIn",
          "type": "uint256"
        }
      ],
      "payable": false,
      "stateMutability": "pure",
      "type": "function"
    },
    {
      "constant": true,
      "inputs": [
        {
          "internalType": "uint256",
          "name": "tokenBalanceIn",
          "type": "uint256"
        },
        {
          "internalType": "uint256",
          "name": "tokenWeightIn",
          "type": "uint256"
        },
        {
          "internalType": "uint256",
          "name": "poolSupply",
          "type": "uint256"
        },
        {
          "internalType": "uint256",
          "name": "totalWeight",
          "type": "uint256"
        },
        {
          "internalType": "uint256",
          "name": "tokenAmountIn",
          "type": "uint256"
        },
        {
          "internalType": "uint256",
          "name": "swapFee",
          "type": "uint256"
        }
      ],
      "name": "calcPoolOutGivenSingleIn",
      "outputs": [
        {
          "internalType": "uint256",
          "name": "poolAmountOut",
          "type": "uint256"
        }
      ],
      "payable": false,
      "stateMutability": "pure",
      "type": "function"
    },
    {
      "constant": true,
      "inputs": [
        {
          "internalType": "uint256",
          "name": "tokenBalanceIn",
          "type": "uint256"
        },
        {
          "internalType": "uint256",
          "name": "tokenWeightIn",
          "type": "uint256"
        },
        {
          "internalType": "uint256",
          "name": "poolSupply",
          "type": "uint256"
        },
        {
          "internalType": "uint256",
          "name": "totalWeight",
          "type": "uint256"
        },
        {
          "internalType": "uint256",
          "name": "poolAmountOut",
          "type": "uint256"
        },
        {
          "internalType": "uint256",
          "name": "swapFee",
          "type": "uint256"
        }
      ],
      "name": "calcSingleInGivenPoolOut",
      "outputs": [
        {
          "internalType": "uint256",
          "name": "tokenAmountIn",
          "type": "uint256"
        }
      ],
      "payable": false,
      "stateMutability": "pure",
      "type": "function"
    },
    {
      "constant": true,
      "inputs": [
        {
          "internalType": "uint256",
          "name": "tokenBalanceOut",
          "type": "uint256"
        },
        {
          "internalType": "uint256",
          "name": "tokenWeightOut",
          "type": "uint256"
        },
        {
          "internalType": "uint256",
          "name": "poolSupply",
          "type": "uint256"
        },
        {
          "internalType": "uint256",
          "name": "totalWeight",
          "type": "uint256"
        },
        {
          "internalType": "uint256",
          "name": "poolAmountIn",
          "type": "uint256"
        },
        {
          "internalType": "uint256",
          "name": "swapFee",
          "type": "uint256"
        }
      ],
      "name": "calcSingleOutGivenPoolIn",
      "outputs": [
        {
          "internalType": "uint256",
          "name": "tokenAmountOut",
          "type": "uint256"
        }
      ],
      "payable": false,
      "stateMutability": "pure",
      "type": "function"
    },
    {
      "constant": true,
      "inputs": [
        {
          "internalType": "uint256",
          "name": "tokenBalanceIn",
          "type": "uint256"
        },
        {
          "internalType": "uint256",
          "name": "tokenWeightIn",
          "type": "uint256"
        },
        {
          "internalType": "uint256",
          "name": "tokenBalanceOut",
          "type": "uint256"
        },
        {
          "internalType": "uint256",
          "name": "tokenWeightOut",
          "type": "uint256"
        },
        {
          "internalType": "uint256",
          "name": "swapFee",
          "type": "uint256"
        }
      ],
      "name": "calcSpotPrice",
      "outputs": [
        {
          "internalType": "uint256",
          "name": "spotPrice",
          "type": "uint256"
        }
      ],
      "payable": false,
      "stateMutability": "pure",
      "type": "function"
    },
    {
      "constant": true,
      "inputs": [],
      "name": "decimals",
      "outputs": [
        {
          "internalType": "uint8",
          "name": "",
          "type": "uint8"
        }
      ],
      "payable": false,
      "stateMutability": "view",
      "type": "function"
    },
    {
      "constant": false,
      "inputs": [
        {
          "internalType": "address",
          "name": "dst",
          "type": "address"
        },
        {
          "internalType": "uint256",
          "name": "amt",
          "type": "uint256"
        }
      ],
      "name": "decreaseApproval",
      "outputs": [
        {
          "internalType": "bool",
          "name": "",
          "type": "bool"
        }
      ],
      "payable": false,
      "stateMutability": "nonpayable",
      "type": "function"
    },
    {
      "constant": true,
      "inputs": [],
      "name": "getColor",
      "outputs": [
        {
          "internalType": "bytes32",
          "name": "",
          "type": "bytes32"
        }
      ],
      "payable": false,
      "stateMutability": "view",
      "type": "function"
    },
    {
      "constant": false,
      "inputs": [
        {
          "internalType": "address",
          "name": "dst",
          "type": "address"
        },
        {
          "internalType": "uint256",
          "name": "amt",
          "type": "uint256"
        }
      ],
      "name": "increaseApproval",
      "outputs": [
        {
          "internalType": "bool",
          "name": "",
          "type": "bool"
        }
      ],
      "payable": false,
      "stateMutability": "nonpayable",
      "type": "function"
    },
    {
      "constant": true,
      "inputs": [],
      "name": "name",
      "outputs": [
        {
          "internalType": "string",
          "name": "",
          "type": "string"
        }
      ],
      "payable": false,
      "stateMutability": "view",
      "type": "function"
    },
    {
      "constant": true,
      "inputs": [],
      "name": "symbol",
      "outputs": [
        {
          "internalType": "string",
          "name": "",
          "type": "string"
        }
      ],
      "payable": false,
      "stateMutability": "view",
      "type": "function"
    },
    {
      "constant": true,
      "inputs": [],
      "name": "totalSupply",
      "outputs": [
        {
          "internalType": "uint256",
          "name": "",
          "type": "uint256"
        }
      ],
      "payable": false,
      "stateMutability": "view",
      "type": "function"
    },
    {
      "constant": false,
      "inputs": [
        {
          "internalType": "address",
          "name": "dst",
          "type": "address"
        },
        {
          "internalType": "uint256",
          "name": "amt",
          "type": "uint256"
        }
      ],
      "name": "transfer",
      "outputs": [
        {
          "internalType": "bool",
          "name": "",
          "type": "bool"
        }
      ],
      "payable": false,
      "stateMutability": "nonpayable",
      "type": "function"
    },
    {
      "constant": false,
      "inputs": [
        {
          "internalType": "address",
          "name": "src",
          "type": "address"
        },
        {
          "internalType": "address",
          "name": "dst",
          "type": "address"
        },
        {
          "internalType": "uint256",
          "name": "amt",
          "type": "uint256"
        }
      ],
      "name": "transferFrom",
      "outputs": [
        {
          "internalType": "bool",
          "name": "",
          "type": "bool"
        }
      ],
      "payable": false,
      "stateMutability": "nonpayable",
      "type": "function"
    },
    {
      "constant": true,
      "inputs": [],
      "name": "isPublicSwap",
      "outputs": [
        {
          "internalType": "bool",
          "name": "",
          "type": "bool"
        }
      ],
      "payable": false,
      "stateMutability": "view",
      "type": "function"
    },
    {
      "constant": true,
      "inputs": [],
      "name": "isFinalized",
      "outputs": [
        {
          "internalType": "bool",
          "name": "",
          "type": "bool"
        }
      ],
      "payable": false,
      "stateMutability": "view",
      "type": "function"
    },
    {
      "constant": true,
      "inputs": [
        {
          "internalType": "address",
          "name": "t",
          "type": "address"
        }
      ],
      "name": "isBound",
      "outputs": [
        {
          "internalType": "bool",
          "name": "",
          "type": "bool"
        }
      ],
      "payable": false,
      "stateMutability": "view",
      "type": "function"
    },
    {
      "constant": true,
      "inputs": [],
      "name": "getNumTokens",
      "outputs": [
        {
          "internalType": "uint256",
          "name": "",
          "type": "uint256"
        }
      ],
      "payable": false,
      "stateMutability": "view",
      "type": "function"
    },
    {
      "constant": true,
      "inputs": [],
      "name": "getCurrentTokens",
      "outputs": [
        {
          "internalType": "address[]",
          "name": "tokens",
          "type": "address[]"
        }
      ],
      "payable": false,
      "stateMutability": "view",
      "type": "function"
    },
    {
      "constant": true,
      "inputs": [],
      "name": "getFinalTokens",
      "outputs": [
        {
          "internalType": "address[]",
          "name": "tokens",
          "type": "address[]"
        }
      ],
      "payable": false,
      "stateMutability": "view",
      "type": "function"
    },
    {
      "constant": true,
      "inputs": [
        {
          "internalType": "address",
          "name": "token",
          "type": "address"
        }
      ],
      "name": "getDenormalizedWeight",
      "outputs": [
        {
          "internalType": "uint256",
          "name": "",
          "type": "uint256"
        }
      ],
      "payable": false,
      "stateMutability": "view",
      "type": "function"
    },
    {
      "constant": true,
      "inputs": [],
      "name": "getTotalDenormalizedWeight",
      "outputs": [
        {
          "internalType": "uint256",
          "name": "",
          "type": "uint256"
        }
      ],
      "payable": false,
      "stateMutability": "view",
      "type": "function"
    },
    {
      "constant": true,
      "inputs": [
        {
          "internalType": "address",
          "name": "token",
          "type": "address"
        }
      ],
      "name": "getNormalizedWeight",
      "outputs": [
        {
          "internalType": "uint256",
          "name": "",
          "type": "uint256"
        }
      ],
      "payable": false,
      "stateMutability": "view",
      "type": "function"
    },
    {
      "constant": true,
      "inputs": [
        {
          "internalType": "address",
          "name": "token",
          "type": "address"
        }
      ],
      "name": "getBalance",
      "outputs": [
        {
          "internalType": "uint256",
          "name": "",
          "type": "uint256"
        }
      ],
      "payable": false,
      "stateMutability": "view",
      "type": "function"
    },
    {
      "constant": true,
      "inputs": [],
      "name": "getSwapFee",
      "outputs": [
        {
          "internalType": "uint256",
          "name": "",
          "type": "uint256"
        }
      ],
      "payable": false,
      "stateMutability": "view",
      "type": "function"
    },
    {
      "constant": true,
      "inputs": [],
      "name": "getController",
      "outputs": [
        {
          "internalType": "address",
          "name": "",
          "type": "address"
        }
      ],
      "payable": false,
      "stateMutability": "view",
      "type": "function"
    },
    {
      "constant": false,
      "inputs": [
        {
          "internalType": "uint256",
          "name": "swapFee",
          "type": "uint256"
        }
      ],
      "name": "setSwapFee",
      "outputs": [],
      "payable": false,
      "stateMutability": "nonpayable",
      "type": "function"
    },
    {
      "constant": false,
      "inputs": [
        {
          "internalType": "address",
          "name": "manager",
          "type": "address"
        }
      ],
      "name": "setController",
      "outputs": [],
      "payable": false,
      "stateMutability": "nonpayable",
      "type": "function"
    },
    {
      "constant": false,
      "inputs": [
        {
          "internalType": "bool",
          "name": "public_",
          "type": "bool"
        }
      ],
      "name": "setPublicSwap",
      "outputs": [],
      "payable": false,
      "stateMutability": "nonpayable",
      "type": "function"
    },
    {
      "constant": false,
      "inputs": [],
      "name": "finalize",
      "outputs": [],
      "payable": false,
      "stateMutability": "nonpayable",
      "type": "function"
    },
    {
      "constant": false,
      "inputs": [
        {
          "internalType": "address",
          "name": "token",
          "type": "address"
        },
        {
          "internalType": "uint256",
          "name": "balance",
          "type": "uint256"
        },
        {
          "internalType": "uint256",
          "name": "denorm",
          "type": "uint256"
        }
      ],
      "name": "bind",
      "outputs": [],
      "payable": false,
      "stateMutability": "nonpayable",
      "type": "function"
    },
    {
      "constant": false,
      "inputs": [
        {
          "internalType": "address",
          "name": "token",
          "type": "address"
        },
        {
          "internalType": "uint256",
          "name": "balance",
          "type": "uint256"
        },
        {
          "internalType": "uint256",
          "name": "denorm",
          "type": "uint256"
        }
      ],
      "name": "rebind",
      "outputs": [],
      "payable": false,
      "stateMutability": "nonpayable",
      "type": "function"
    },
    {
      "constant": false,
      "inputs": [
        {
          "internalType": "address",
          "name": "token",
          "type": "address"
        }
      ],
      "name": "unbind",
      "outputs": [],
      "payable": false,
      "stateMutability": "nonpayable",
      "type": "function"
    },
    {
      "constant": false,
      "inputs": [
        {
          "internalType": "address",
          "name": "token",
          "type": "address"
        }
      ],
      "name": "gulp",
      "outputs": [],
      "payable": false,
      "stateMutability": "nonpayable",
      "type": "function"
    },
    {
      "constant": true,
      "inputs": [
        {
          "internalType": "address",
          "name": "tokenIn",
          "type": "address"
        },
        {
          "internalType": "address",
          "name": "tokenOut",
          "type": "address"
        }
      ],
      "name": "getSpotPrice",
      "outputs": [
        {
          "internalType": "uint256",
          "name": "spotPrice",
          "type": "uint256"
        }
      ],
      "payable": false,
      "stateMutability": "view",
      "type": "function"
    },
    {
      "constant": true,
      "inputs": [
        {
          "internalType": "address",
          "name": "tokenIn",
          "type": "address"
        },
        {
          "internalType": "address",
          "name": "tokenOut",
          "type": "address"
        }
      ],
      "name": "getSpotPriceSansFee",
      "outputs": [
        {
          "internalType": "uint256",
          "name": "spotPrice",
          "type": "uint256"
        }
      ],
      "payable": false,
      "stateMutability": "view",
      "type": "function"
    },
    {
      "constant": false,
      "inputs": [
        {
          "internalType": "uint256",
          "name": "poolAmountOut",
          "type": "uint256"
        },
        {
          "internalType": "uint256[]",
          "name": "maxAmountsIn",
          "type": "uint256[]"
        }
      ],
      "name": "joinPool",
      "outputs": [],
      "payable": false,
      "stateMutability": "nonpayable",
      "type": "function"
    },
    {
      "constant": false,
      "inputs": [
        {
          "internalType": "uint256",
          "name": "poolAmountIn",
          "type": "uint256"
        },
        {
          "internalType": "uint256[]",
          "name": "minAmountsOut",
          "type": "uint256[]"
        }
      ],
      "name": "exitPool",
      "outputs": [],
      "payable": false,
      "stateMutability": "nonpayable",
      "type": "function"
    },
    {
      "constant": false,
      "inputs": [
        {
          "internalType": "address",
          "name": "tokenIn",
          "type": "address"
        },
        {
          "internalType": "uint256",
          "name": "tokenAmountIn",
          "type": "uint256"
        },
        {
          "internalType": "address",
          "name": "tokenOut",
          "type": "address"
        },
        {
          "internalType": "uint256",
          "name": "minAmountOut",
          "type": "uint256"
        },
        {
          "internalType": "uint256",
          "name": "maxPrice",
          "type": "uint256"
        }
      ],
      "name": "swapExactAmountIn",
      "outputs": [
        {
          "internalType": "uint256",
          "name": "tokenAmountOut",
          "type": "uint256"
        },
        {
          "internalType": "uint256",
          "name": "spotPriceAfter",
          "type": "uint256"
        }
      ],
      "payable": false,
      "stateMutability": "nonpayable",
      "type": "function"
    },
    {
      "constant": false,
      "inputs": [
        {
          "internalType": "address",
          "name": "tokenIn",
          "type": "address"
        },
        {
          "internalType": "uint256",
          "name": "maxAmountIn",
          "type": "uint256"
        },
        {
          "internalType": "address",
          "name": "tokenOut",
          "type": "address"
        },
        {
          "internalType": "uint256",
          "name": "tokenAmountOut",
          "type": "uint256"
        },
        {
          "internalType": "uint256",
          "name": "maxPrice",
          "type": "uint256"
        }
      ],
      "name": "swapExactAmountOut",
      "outputs": [
        {
          "internalType": "uint256",
          "name": "tokenAmountIn",
          "type": "uint256"
        },
        {
          "internalType": "uint256",
          "name": "spotPriceAfter",
          "type": "uint256"
        }
      ],
      "payable": false,
      "stateMutability": "nonpayable",
      "type": "function"
    },
    {
      "constant": false,
      "inputs": [
        {
          "internalType": "address",
          "name": "tokenIn",
          "type": "address"
        },
        {
          "internalType": "uint256",
          "name": "tokenAmountIn",
          "type": "uint256"
        },
        {
          "internalType": "uint256",
          "name": "minPoolAmountOut",
          "type": "uint256"
        }
      ],
      "name": "joinswapExternAmountIn",
      "outputs": [
        {
          "internalType": "uint256",
          "name": "poolAmountOut",
          "type": "uint256"
        }
      ],
      "payable": false,
      "stateMutability": "nonpayable",
      "type": "function"
    },
    {
      "constant": false,
      "inputs": [
        {
          "internalType": "address",
          "name": "tokenIn",
          "type": "address"
        },
        {
          "internalType": "uint256",
          "name": "poolAmountOut",
          "type": "uint256"
        },
        {
          "internalType": "uint256",
          "name": "maxAmountIn",
          "type": "uint256"
        }
      ],
      "name": "joinswapPoolAmountOut",
      "outputs": [
        {
          "internalType": "uint256",
          "name": "tokenAmountIn",
          "type": "uint256"
        }
      ],
      "payable": false,
      "stateMutability": "nonpayable",
      "type": "function"
    },
    {
      "constant": false,
      "inputs": [
        {
          "internalType": "address",
          "name": "tokenOut",
          "type": "address"
        },
        {
          "internalType": "uint256",
          "name": "poolAmountIn",
          "type": "uint256"
        },
        {
          "internalType": "uint256",
          "name": "minAmountOut",
          "type": "uint256"
        }
      ],
      "name": "exitswapPoolAmountIn",
      "outputs": [
        {
          "internalType": "uint256",
          "name": "tokenAmountOut",
          "type": "uint256"
        }
      ],
      "payable": false,
      "stateMutability": "nonpayable",
      "type": "function"
    },
    {
      "constant": false,
      "inputs": [
        {
          "internalType": "address",
          "name": "tokenOut",
          "type": "address"
        },
        {
          "internalType": "uint256",
          "name": "tokenAmountOut",
          "type": "uint256"
        },
        {
          "internalType": "uint256",
          "name": "maxPoolAmountIn",
          "type": "uint256"
        }
      ],
      "name": "exitswapExternAmountOut",
      "outputs": [
        {
          "internalType": "uint256",
          "name": "poolAmountIn",
          "type": "uint256"
        }
      ],
      "payable": false,
      "stateMutability": "nonpayable",
      "type": "function"
    }
  ],
  "bytecode": "0x60c0604052601360808190527f42616c616e63657220506f6f6c20546f6b656e0000000000000000000000000060a0908152620000409160039190620000f7565b506040805180820190915260038082527f425054000000000000000000000000000000000000000000000000000000000060209092019182526200008791600491620000f7565b506005805460ff19166012179055348015620000a257600080fd5b5060068054600580546201000060b060020a031916336201000081029190911790915564e8d4a51000600755600160a060020a03199091161760a060020a60ff02191690556008805460ff191690556200019c565b828054600181600116156101000203166002900490600052602060002090601f016020900481019282601f106200013a57805160ff19168380011785556200016a565b828001600101855582156200016a579182015b828111156200016a5782518255916020019190600101906200014d565b50620001789291506200017c565b5090565b6200019991905b8082111562000178576000815560010162000183565b90565b61587480620001ac6000396000f3fe608060405234801561001057600080fd5b5060043610610378576000357c0100000000000000000000000000000000000000000000000000000000900480638d4e4083116101e7578063bc694ea211610122578063d73dd623116100c5578063d73dd62314610b7f578063dd62ed3e14610bab578063e4a28a521461047e578063e4e1e53814610bd9578063ec09302114610c0b578063f1b8a9b714610c13578063f8b2cb4f14610c39578063f8d6aed414610c5f578063fde924f714610c9a57610378565b8063bc694ea214610ad9578063be3bbd2e14610ae1578063c36596a6146104f2578063c6580d1214610b39578063cc77828d14610b41578063cd2ed8fb14610b49578063cf5e7bd314610b51578063d4cadf6814610b7757610378565b8063a221ee491161018a578063a221ee49146109a6578063a9059cbb146109db578063b02f0b7314610a07578063b0e0d13614610a7e578063b7b800a414610a86578063ba019dab14610a8e578063ba9530a614610a96578063bc063e1a14610ad157610378565b80638d4e40831461092a57806392eefe9b14610932578063936c3477146109585780639381cd2b14610960578063948d8ce61461096857806395d89b411461098e578063992e2a92146109965780639a86139b1461099e57610378565b806349b59552116102b757806376c7a3c71161025a57806376c7a3c7146107aa5780637c5e9ea4146107b25780638201aa3f1461080b57806382f652ad1461084b5780638656b65314610886578063867378c5146108c157806389298012146108c95780638c28cbe81461090457610378565b806349b595521461061b5780634bb278f31461063a5780634f69c0d4146106425780635c1bbaf7146106b95780635db34277146106f457806366188463146107265780636d06dfa01461075257806370a082311461078457610378565b8063218b53821161031f578063218b5382146104f257806323b872dd146104fa5780632f37b624146105305780633018205f14610556578063313ce5671461057a57806334e19907146105985780633fdddaa2146105b757806346ab38f1146105e957610378565b806302c967481461037d57806306fdde03146103c1578063095ea7b31461043e57806309a3bbe41461047e5780631446a7ff1461048657806315e84af9146104b457806318160ddd146104e2578063189d00ca146104ea575b600080fd5b6103af6004803603606081101561039357600080fd5b50600160a060020a038135169060208101359060400135610ca2565b60408051918252519081900360200190f35b6103c9610fef565b6040805160208082528351818301528351919283929083019185019080838360005b838110156104035781810151838201526020016103eb565b50505050905090810190601f1680156104305780820380516001836020036101000a031916815260200191505b509250505060405180910390f35b61046a6004803603604081101561045457600080fd5b50600160a060020a038135169060200135611085565b604080519115158252519081900360200190f35b6103af6110da565b6103af6004803603604081101561049c57600080fd5b50600160a060020a03813581169160200135166110e7565b6103af600480360360408110156104ca57600080fd5b50600160a060020a0381358116916020013516611241565b6103af611392565b6103af611398565b6103af6113ac565b61046a6004803603606081101561051057600080fd5b50600160a060020a038135811691602081013590911690604001356113b8565b61046a6004803603602081101561054657600080fd5b5035600160a060020a031661151d565b61055e61153b565b60408051600160a060020a039092168252519081900360200190f35b61058261159c565b6040805160ff9092168252519081900360200190f35b6105b5600480360360208110156105ae57600080fd5b50356115a5565b005b6105b5600480360360608110156105cd57600080fd5b50600160a060020a0381351690602081013590604001356117c9565b6103af600480360360608110156105ff57600080fd5b50600160a060020a038135169060208101359060400135611c15565b6105b56004803603602081101561063157600080fd5b50351515611f01565b6105b5612092565b6105b56004803603604081101561065857600080fd5b8135919081019060408101602082013564010000000081111561067a57600080fd5b82018360208201111561068c57600080fd5b803590602001918460208302840111640100000000831117156106ae57600080fd5b5090925090506122a9565b6103af600480360360c08110156106cf57600080fd5b5080359060208101359060408101359060608101359060808101359060a00135612590565b6103af6004803603606081101561070a57600080fd5b50600160a060020a038135169060208101359060400135612648565b61046a6004803603604081101561073c57600080fd5b50600160a060020a038135169060200135612919565b6103af6004803603606081101561076857600080fd5b50600160a060020a0381351690602081013590604001356129f1565b6103af6004803603602081101561079a57600080fd5b5035600160a060020a0316612cf0565b6103af612d0b565b6107f2600480360360a08110156107c857600080fd5b50600160a060020a0381358116916020810135916040820135169060608101359060800135612d1d565b6040805192835260208301919091528051918290030190f35b6107f2600480360360a081101561082157600080fd5b50600160a060020a038135811691602081013591604082013516906060810135906080013561320d565b6103af600480360360c081101561086157600080fd5b5080359060208101359060408101359060608101359060808101359060a001356136e4565b6103af600480360360c081101561089c57600080fd5b5080359060208101359060408101359060608101359060808101359060a001356137a3565b6103af613844565b6103af600480360360c08110156108df57600080fd5b5080359060208101359060408101359060608101359060808101359060a00135613858565b6105b56004803603602081101561091a57600080fd5b5035600160a060020a0316613908565b61046a613ad9565b6105b56004803603602081101561094857600080fd5b5035600160a060020a0316613ae2565b6103af613c2c565b6103af613c84565b6103af6004803603602081101561097e57600080fd5b5035600160a060020a0316613c91565b6103c9613d5f565b6103af613dc0565b6103af613dcc565b6103af600480360360a08110156109bc57600080fd5b5080359060208101359060408101359060608101359060800135613df0565b61046a600480360360408110156109f157600080fd5b50600160a060020a038135169060200135613e55565b6105b560048036036040811015610a1d57600080fd5b81359190810190604081016020820135640100000000811115610a3f57600080fd5b820183602082011115610a5157600080fd5b80359060200191846020830284011164010000000083111715610a7357600080fd5b509092509050613e6b565b6103af61419f565b6103af6141a4565b6103af6141a9565b6103af600480360360c0811015610aac57600080fd5b5080359060208101359060408101359060608101359060808101359060a001356141ae565b6103af61422f565b6103af61423f565b610ae961424b565b60408051602080825283518183015283519192839290830191858101910280838360005b83811015610b25578181015183820152602001610b0d565b505050509050019250505060405180910390f35b6103af614343565b610ae9614348565b6103af614399565b6105b560048036036020811015610b6757600080fd5b5035600160a060020a031661439f565b6103af61472c565b61046a60048036036040811015610b9557600080fd5b50600160a060020a038135169060200135614784565b6103af60048036036040811015610bc157600080fd5b50600160a060020a0381358116916020013516614805565b6105b560048036036060811015610bef57600080fd5b50600160a060020a038135169060208101359060400135614830565b6103af614ab4565b6103af60048036036020811015610c2957600080fd5b5035600160a060020a0316614ac4565b6103af60048036036020811015610c4f57600080fd5b5035600160a060020a0316614ba4565b6103af600480360360c0811015610c7557600080fd5b5080359060208101359060408101359060608101359060808101359060a00135614c72565b61046a614cf5565b600033600160a060020a0316600035600160e060020a031916600160e060020a03191660003660405180806020018281038252848482818152602001925080828437600083820152604051601f909101601f19169092018290039550909350505050a2600554610100900460ff1615610d53576040805160e560020a62461bcd02815260206004820152600b60248201526000805160206156a0833981519152604482015290519081900360640190fd5b6005805461ff00191661010017905560085460ff16610daa576040805160e560020a62461bcd0281526020600482015260116024820152600080516020615680833981519152604482015290519081900360640190fd5b600160a060020a0384166000908152600a602052604090205460ff16610e08576040805160e560020a62461bcd02815260206004820152600d6024820152600080516020615780833981519152604482015290519081900360640190fd5b600160a060020a0384166000908152600a60205260409020600390810154610e3d91670de0b6b3a76400005b04600101614d05565b831115610e82576040805160e560020a62461bcd02815260206004820152601160248201526000805160206156e0833981519152604482015290519081900360640190fd5b600160a060020a0384166000908152600a6020526040902060038101546002808301549054600b54600754610ebc949392919089906136e4565b915081610f01576040805160e560020a62461bcd02815260206004820152600f6024820152600080516020615820833981519152604482015290519081900360640190fd5b82821115610f47576040805160e560020a62461bcd02815260206004820152600c60248201526000805160206156c0833981519152604482015290519081900360640190fd5b610f55816003015485614dee565b60038201556000610f668382614d05565b604080518781529051919250600160a060020a0388169133916000805160206157a0833981519152919081900360200190a3610fa23384614e5f565b610fb4610faf8483614dee565b614e6d565b600554610fd090620100009004600160a060020a031682614e79565b610fdb863387614e83565b50506005805461ff00191690559392505050565b60038054604080516020601f600260001961010060018816150201909516949094049384018190048102820181019092528281526060939092909183018282801561107b5780601f106110505761010080835404028352916020019161107b565b820191906000526020600020905b81548152906001019060200180831161105e57829003601f168201915b5050505050905090565b336000818152600160209081526040808320600160a060020a038716808552908352818420869055815186815291519394909390926000805160206157c0833981519152928290030190a35060015b92915050565b6802b5e3af16b188000081565b600554600090610100900460ff1615611138576040805160e560020a62461bcd02815260206004820152600b60248201526000805160206156a0833981519152604482015290519081900360640190fd5b600160a060020a0383166000908152600a602052604090205460ff16611196576040805160e560020a62461bcd02815260206004820152600d6024820152600080516020615780833981519152604482015290519081900360640190fd5b600160a060020a0382166000908152600a602052604090205460ff166111f4576040805160e560020a62461bcd02815260206004820152600d6024820152600080516020615780833981519152604482015290519081900360640190fd5b600160a060020a038084166000908152600a602052604080822092851682528120600380840154600280860154928401549084015493946112389492939290613df0565b95945050505050565b600554600090610100900460ff1615611292576040805160e560020a62461bcd02815260206004820152600b60248201526000805160206156a0833981519152604482015290519081900360640190fd5b600160a060020a0383166000908152600a602052604090205460ff166112f0576040805160e560020a62461bcd02815260206004820152600d6024820152600080516020615780833981519152604482015290519081900360640190fd5b600160a060020a0382166000908152600a602052604090205460ff1661134e576040805160e560020a62461bcd02815260206004820152600d6024820152600080516020615780833981519152604482015290519081900360640190fd5b600160a060020a038084166000908152600a602052604080822092851682529020600380830154600280850154928401549084015460075461123894929190613df0565b60025490565b6402540be400670de0b6b3a76400005b0481565b670de0b6b3a764000081565b600033600160a060020a03851614806113f45750600160a060020a03841660009081526001602090815260408083203384529091529020548211155b611448576040805160e560020a62461bcd02815260206004820152601560248201527f4552525f42544f4b454e5f4241445f43414c4c45520000000000000000000000604482015290519081900360640190fd5b611453848484614f78565b33600160a060020a038516148015906114915750600160a060020a038416600090815260016020908152604080832033845290915290205460001914155b1561151357600160a060020a03841660009081526001602090815260408083203384529091529020546114c49083614dee565b600160a060020a03858116600090815260016020908152604080832033808552908352928190208590558051948552519287169391926000805160206157c08339815191529281900390910190a35b5060019392505050565b600160a060020a03166000908152600a602052604090205460ff1690565b600554600090610100900460ff161561158c576040805160e560020a62461bcd02815260206004820152600b60248201526000805160206156a0833981519152604482015290519081900360640190fd5b50600654600160a060020a031690565b60055460ff1690565b33600160a060020a0316600035600160e060020a031916600160e060020a03191660003660405180806020018281038252848482818152602001925080828437600083820152604051601f909101601f19169092018290039550909350505050a2600554610100900460ff1615611654576040805160e560020a62461bcd02815260206004820152600b60248201526000805160206156a0833981519152604482015290519081900360640190fd5b6005805461ff00191661010017905560085460ff16156116ac576040805160e560020a62461bcd02815260206004820152601060248201526000805160206157e0833981519152604482015290519081900360640190fd5b600654600160a060020a031633146116fc576040805160e560020a62461bcd0281526020600482015260126024820152600080516020615720833981519152604482015290519081900360640190fd5b64e8d4a51000811015611759576040805160e560020a62461bcd02815260206004820152600b60248201527f4552525f4d494e5f464545000000000000000000000000000000000000000000604482015290519081900360640190fd5b67016345785d8a00008111156117b9576040805160e560020a62461bcd02815260206004820152600b60248201527f4552525f4d41585f464545000000000000000000000000000000000000000000604482015290519081900360640190fd5b6007556005805461ff0019169055565b33600160a060020a0316600035600160e060020a031916600160e060020a03191660003660405180806020018281038252848482818152602001925080828437600083820152604051601f909101601f19169092018290039550909350505050a2600554610100900460ff1615611878576040805160e560020a62461bcd02815260206004820152600b60248201526000805160206156a0833981519152604482015290519081900360640190fd5b6005805461ff00191661010017905560065433600160a060020a03909116146118d9576040805160e560020a62461bcd0281526020600482015260126024820152600080516020615720833981519152604482015290519081900360640190fd5b600160a060020a0383166000908152600a602052604090205460ff16611937576040805160e560020a62461bcd02815260206004820152600d6024820152600080516020615780833981519152604482015290519081900360640190fd5b60085460ff1615611980576040805160e560020a62461bcd02815260206004820152601060248201526000805160206157e0833981519152604482015290519081900360640190fd5b670de0b6b3a76400008110156119e0576040805160e560020a62461bcd02815260206004820152600e60248201527f4552525f4d494e5f574549474854000000000000000000000000000000000000604482015290519081900360640190fd5b6802b5e3af16b1880000811115611a41576040805160e560020a62461bcd02815260206004820152600e60248201527f4552525f4d41585f574549474854000000000000000000000000000000000000604482015290519081900360640190fd5b620f4240821015611a9c576040805160e560020a62461bcd02815260206004820152600f60248201527f4552525f4d494e5f42414c414e43450000000000000000000000000000000000604482015290519081900360640190fd5b600160a060020a0383166000908152600a602052604090206002015480821115611b3f57611ad5600b54611ad08484614dee565b615082565b600b8190556802b5e3af16b18800001015611b3a576040805160e560020a62461bcd02815260206004820152601460248201527f4552525f4d41585f544f54414c5f574549474854000000000000000000000000604482015290519081900360640190fd5b611b60565b80821015611b6057611b5c600b54611b578385614dee565b614dee565b600b555b600160a060020a0384166000908152600a602052604090206002810183905560030180549084905580841115611ba957611ba48533611b9f8785614dee565b6150df565b611c03565b80841015611c03576000611bbd8286614dee565b90506000611bcc826000614d05565b9050611be28733611bdd8585614dee565b614e83565b600554611c00908890620100009004600160a060020a031683614e83565b50505b50506005805461ff0019169055505050565b600033600160a060020a0316600035600160e060020a031916600160e060020a03191660003660405180806020018281038252848482818152602001925080828437600083820152604051601f909101601f19169092018290039550909350505050a2600554610100900460ff1615611cc6576040805160e560020a62461bcd02815260206004820152600b60248201526000805160206156a0833981519152604482015290519081900360640190fd5b6005805461ff00191661010017905560085460ff16611d1d576040805160e560020a62461bcd0281526020600482015260116024820152600080516020615680833981519152604482015290519081900360640190fd5b600160a060020a0384166000908152600a602052604090205460ff16611d7b576040805160e560020a62461bcd02815260206004820152600d6024820152600080516020615780833981519152604482015290519081900360640190fd5b600160a060020a0384166000908152600a6020526040902060038101546002808301549054600b54600754611db594939291908990613858565b915082821015611dfd576040805160e560020a62461bcd02815260206004820152600d6024820152600080516020615800833981519152604482015290519081900360640190fd5b600160a060020a0385166000908152600a60205260409020600390810154611e2d91670de0b6b3a7640000610e34565b821115611e72576040805160e560020a62461bcd02815260206004820152601160248201526000805160206156e0833981519152604482015290519081900360640190fd5b611e80816003015483614dee565b60038201556000611e918582614d05565b604080518581529051919250600160a060020a0388169133916000805160206157a0833981519152919081900360200190a3611ecd3386614e5f565b611eda610faf8683614dee565b600554611ef690620100009004600160a060020a031682614e79565b610fdb863385614e83565b33600160a060020a0316600035600160e060020a031916600160e060020a03191660003660405180806020018281038252848482818152602001925080828437600083820152604051601f909101601f19169092018290039550909350505050a2600554610100900460ff1615611fb0576040805160e560020a62461bcd02815260206004820152600b60248201526000805160206156a0833981519152604482015290519081900360640190fd5b6005805461ff00191661010017905560085460ff1615612008576040805160e560020a62461bcd02815260206004820152601060248201526000805160206157e0833981519152604482015290519081900360640190fd5b600654600160a060020a03163314612058576040805160e560020a62461bcd0281526020600482015260126024820152600080516020615720833981519152604482015290519081900360640190fd5b6006805491151560a060020a0274ff0000000000000000000000000000000000000000199092169190911790556005805461ff0019169055565b33600160a060020a0316600035600160e060020a031916600160e060020a03191660003660405180806020018281038252848482818152602001925080828437600083820152604051601f909101601f19169092018290039550909350505050a2600554610100900460ff1615612141576040805160e560020a62461bcd02815260206004820152600b60248201526000805160206156a0833981519152604482015290519081900360640190fd5b6005805461ff00191661010017905560065433600160a060020a03909116146121a2576040805160e560020a62461bcd0281526020600482015260126024820152600080516020615720833981519152604482015290519081900360640190fd5b60085460ff16156121eb576040805160e560020a62461bcd02815260206004820152601060248201526000805160206157e0833981519152604482015290519081900360640190fd5b60095460021115612246576040805160e560020a62461bcd02815260206004820152600e60248201527f4552525f4d494e5f544f4b454e53000000000000000000000000000000000000604482015290519081900360640190fd5b6008805460ff191660011790556006805474ff0000000000000000000000000000000000000000191660a060020a17905561228968056bc75e2d63100000615151565b61229c3368056bc75e2d63100000614e79565b6005805461ff0019169055565b33600160a060020a0316600035600160e060020a031916600160e060020a03191660003660405180806020018281038252848482818152602001925080828437600083820152604051601f909101601f19169092018290039550909350505050a2600554610100900460ff1615612358576040805160e560020a62461bcd02815260206004820152600b60248201526000805160206156a0833981519152604482015290519081900360640190fd5b6005805461ff00191661010017905560085460ff166123af576040805160e560020a62461bcd0281526020600482015260116024820152600080516020615680833981519152604482015290519081900360640190fd5b60006123b9611392565b905060006123c7858361515a565b90508061240c576040805160e560020a62461bcd02815260206004820152600f6024820152600080516020615820833981519152604482015290519081900360640190fd5b60005b60095481101561257c5760006009828154811061242857fe5b6000918252602080832090910154600160a060020a0316808352600a90915260408220600301549092509061245d8583614d05565b9050806124a2576040805160e560020a62461bcd02815260206004820152600f6024820152600080516020615820833981519152604482015290519081900360640190fd5b8787858181106124ae57fe5b905060200201358111156124fa576040805160e560020a62461bcd02815260206004820152600c60248201526000805160206156c0833981519152604482015290519081900360640190fd5b600160a060020a0383166000908152600a60205260409020600301546125209082615082565b600160a060020a0384166000818152600a60209081526040918290206003019390935580518481529051919233926000805160206157008339815191529281900390910190a36125718333836150df565b50505060010161240f565b5061258685615151565b611c033386614e79565b60008061259d878661515a565b905060006125ab8786615082565b905060006125b9828961515a565b905060006125cf670de0b6b3a76400008561515a565b905060006125dd8383615296565b905060006125eb828e614d05565b905060006125f9828f614dee565b90506000612618612612670de0b6b3a76400008a614dee565b8b614d05565b905061263582612630670de0b6b3a764000084614dee565b61515a565b9f9e505050505050505050505050505050565b600033600160a060020a0316600035600160e060020a031916600160e060020a03191660003660405180806020018281038252848482818152602001925080828437600083820152604051601f909101601f19169092018290039550909350505050a2600554610100900460ff16156126f9576040805160e560020a62461bcd02815260206004820152600b60248201526000805160206156a0833981519152604482015290519081900360640190fd5b6005805461ff00191661010017905560085460ff16612750576040805160e560020a62461bcd0281526020600482015260116024820152600080516020615680833981519152604482015290519081900360640190fd5b600160a060020a0384166000908152600a602052604090205460ff166127ae576040805160e560020a62461bcd02815260206004820152600d6024820152600080516020615780833981519152604482015290519081900360640190fd5b600160a060020a0384166000908152600a60205260409020600301546127e0906002670de0b6b3a76400005b04614d05565b831115612825576040805160e560020a62461bcd0281526020600482015260106024820152600080516020615740833981519152604482015290519081900360640190fd5b600160a060020a0384166000908152600a6020526040902060038101546002808301549054600b5460075461285f949392919089906137a3565b9150828210156128a7576040805160e560020a62461bcd02815260206004820152600d6024820152600080516020615800833981519152604482015290519081900360640190fd5b6128b5816003015485615082565b6003820155604080518581529051600160a060020a0387169133916000805160206157008339815191529181900360200190a36128f182615151565b6128fb3383614e79565b6129068533866150df565b506005805461ff00191690559392505050565b336000908152600160209081526040808320600160a060020a03861684529091528120548083111561296e57336000908152600160209081526040808320600160a060020a038816845290915281205561299d565b6129788184614dee565b336000908152600160209081526040808320600160a060020a03891684529091529020555b336000818152600160209081526040808320600160a060020a0389168085529083529281902054815190815290519293926000805160206157c0833981519152929181900390910190a35060019392505050565b600033600160a060020a0316600035600160e060020a031916600160e060020a03191660003660405180806020018281038252848482818152602001925080828437600083820152604051601f909101601f19169092018290039550909350505050a2600554610100900460ff1615612aa2576040805160e560020a62461bcd02815260206004820152600b60248201526000805160206156a0833981519152604482015290519081900360640190fd5b6005805461ff00191661010017905560085460ff16612af9576040805160e560020a62461bcd0281526020600482015260116024820152600080516020615680833981519152604482015290519081900360640190fd5b600160a060020a0384166000908152600a602052604090205460ff16612b57576040805160e560020a62461bcd02815260206004820152600d6024820152600080516020615780833981519152604482015290519081900360640190fd5b600160a060020a0384166000908152600a6020526040902060038101546002808301549054600b54600754612b9194939291908990612590565b915081612bd6576040805160e560020a62461bcd02815260206004820152600f6024820152600080516020615820833981519152604482015290519081900360640190fd5b82821115612c1c576040805160e560020a62461bcd02815260206004820152600c60248201526000805160206156c0833981519152604482015290519081900360640190fd5b600160a060020a0385166000908152600a6020526040902060030154612c4c906002670de0b6b3a76400006127da565b821115612c91576040805160e560020a62461bcd0281526020600482015260106024820152600080516020615740833981519152604482015290519081900360640190fd5b612c9f816003015483615082565b6003820155604080518381529051600160a060020a0387169133916000805160206157008339815191529181900360200190a3612cdb84615151565b612ce53385614e79565b6129068533846150df565b600160a060020a031660009081526020819052604090205490565b620f4240670de0b6b3a76400006113a8565b6040805160208082523690820181905260009283923392600160e060020a03198535169285929081908101848480828437600083820152604051601f909101601f19169092018290039550909350505050a2600554610100900460ff1615612dbd576040805160e560020a62461bcd02815260206004820152600b60248201526000805160206156a0833981519152604482015290519081900360640190fd5b6005805461ff001916610100179055600160a060020a0387166000908152600a602052604090205460ff16612e2a576040805160e560020a62461bcd02815260206004820152600d6024820152600080516020615780833981519152604482015290519081900360640190fd5b600160a060020a0385166000908152600a602052604090205460ff16612e88576040805160e560020a62461bcd02815260206004820152600d6024820152600080516020615780833981519152604482015290519081900360640190fd5b60065460a060020a900460ff16612ee9576040805160e560020a62461bcd02815260206004820152601360248201527f4552525f535741505f4e4f545f5055424c494300000000000000000000000000604482015290519081900360640190fd5b600160a060020a038088166000908152600a602052604080822092881682529020600380820154612f2291670de0b6b3a7640000610e34565b861115612f67576040805160e560020a62461bcd02815260206004820152601160248201526000805160206156e0833981519152604482015290519081900360640190fd5b6000612f888360030154846002015484600301548560020154600754613df0565b905085811115612fe2576040805160e560020a62461bcd02815260206004820152601360248201527f4552525f4241445f4c494d49545f505249434500000000000000000000000000604482015290519081900360640190fd5b61300283600301548460020154846003015485600201548b600754614c72565b94508885111561304a576040805160e560020a62461bcd02815260206004820152600c60248201526000805160206156c0833981519152604482015290519081900360640190fd5b613058836003015486615082565b836003018190555061306e826003015488614dee565b600380840182905584015460028086015490850154600754613091949190613df0565b9350808410156130d9576040805160e560020a62461bcd02815260206004820152600f6024820152600080516020615820833981519152604482015290519081900360640190fd5b85841115613131576040805160e560020a62461bcd02815260206004820152600f60248201527f4552525f4c494d49545f50524943450000000000000000000000000000000000604482015290519081900360640190fd5b61313b858861515a565b811115613180576040805160e560020a62461bcd02815260206004820152600f6024820152600080516020615820833981519152604482015290519081900360640190fd5b87600160a060020a03168a600160a060020a031633600160a060020a03167f908fb5ee8f16c6bc9bc3690973819f32a4d4b10188134543c88706e0e1d43378888b604051808381526020018281526020019250505060405180910390a46131e88a33876150df565b6131f3883389614e83565b5050506005805461ff001916905590969095509350505050565b6040805160208082523690820181905260009283923392600160e060020a03198535169285929081908101848480828437600083820152604051601f909101601f19169092018290039550909350505050a2600554610100900460ff16156132ad576040805160e560020a62461bcd02815260206004820152600b60248201526000805160206156a0833981519152604482015290519081900360640190fd5b6005805461ff001916610100179055600160a060020a0387166000908152600a602052604090205460ff1661331a576040805160e560020a62461bcd02815260206004820152600d6024820152600080516020615780833981519152604482015290519081900360640190fd5b600160a060020a0385166000908152600a602052604090205460ff16613378576040805160e560020a62461bcd02815260206004820152600d6024820152600080516020615780833981519152604482015290519081900360640190fd5b60065460a060020a900460ff166133d9576040805160e560020a62461bcd02815260206004820152601360248201527f4552525f535741505f4e4f545f5055424c494300000000000000000000000000604482015290519081900360640190fd5b600160a060020a038088166000908152600a6020526040808220928816825290206003820154613413906002670de0b6b3a76400006127da565b881115613458576040805160e560020a62461bcd0281526020600482015260106024820152600080516020615740833981519152604482015290519081900360640190fd5b60006134798360030154846002015484600301548560020154600754613df0565b9050858111156134d3576040805160e560020a62461bcd02815260206004820152601360248201527f4552525f4241445f4c494d49545f505249434500000000000000000000000000604482015290519081900360640190fd5b6134f383600301548460020154846003015485600201548d6007546141ae565b94508685101561353b576040805160e560020a62461bcd02815260206004820152600d6024820152600080516020615800833981519152604482015290519081900360640190fd5b61354983600301548a615082565b836003018190555061355f826003015486614dee565b600380840182905584015460028086015490850154600754613582949190613df0565b9350808410156135ca576040805160e560020a62461bcd02815260206004820152600f6024820152600080516020615820833981519152604482015290519081900360640190fd5b85841115613622576040805160e560020a62461bcd02815260206004820152600f60248201527f4552525f4c494d49545f50524943450000000000000000000000000000000000604482015290519081900360640190fd5b61362c898661515a565b811115613671576040805160e560020a62461bcd02815260206004820152600f6024820152600080516020615820833981519152604482015290519081900360640190fd5b87600160a060020a03168a600160a060020a031633600160a060020a03167f908fb5ee8f16c6bc9bc3690973819f32a4d4b10188134543c88706e0e1d433788c89604051808381526020018281526020019250505060405180910390a46136d98a338b6150df565b6131f3883387614e83565b6000806136f1878661515a565b90506000613707670de0b6b3a764000083614dee565b905060006137158286614d05565b9050600061372f87612630670de0b6b3a764000085614dee565b9050600061373d8c83614dee565b9050600061374b828e61515a565b905060006137598288615296565b90506000613767828e614d05565b905060006137758e83614dee565b905061378e81612630670de0b6b3a76400006000614dee565b99505050505050505050509695505050505050565b6000806137b0878661515a565b905060006137cf6137c9670de0b6b3a764000084614dee565b85614d05565b905060006137ee866137e9670de0b6b3a764000085614dee565b614d05565b905060006137fc8b83615082565b9050600061380a828d61515a565b905060006138188287615296565b90506000613826828d614d05565b9050613832818d614dee565b9e9d5050505050505050505050505050565b64e8d4a51000670de0b6b3a76400006113a8565b600080613865878661515a565b90506000613880856137e9670de0b6b3a76400006000614dee565b9050600061388e8883614dee565b9050600061389c828a61515a565b905060006138bb826138b6670de0b6b3a76400008861515a565b615296565b905060006138c9828e614d05565b905060006138d78e83614dee565b905060006138f0612612670de0b6b3a76400008a614dee565b9050612635826137e9670de0b6b3a764000084614dee565b33600160a060020a0316600035600160e060020a031916600160e060020a03191660003660405180806020018281038252848482818152602001925080828437600083820152604051601f909101601f19169092018290039550909350505050a2600554610100900460ff16156139b7576040805160e560020a62461bcd02815260206004820152600b60248201526000805160206156a0833981519152604482015290519081900360640190fd5b6005805461ff001916610100179055600160a060020a0381166000908152600a602052604090205460ff16613a24576040805160e560020a62461bcd02815260206004820152600d6024820152600080516020615780833981519152604482015290519081900360640190fd5b604080517f70a082310000000000000000000000000000000000000000000000000000000081523060048201529051600160a060020a038316916370a08231916024808301926020929190829003018186803b158015613a8357600080fd5b505afa158015613a97573d6000803e3d6000fd5b505050506040513d6020811015613aad57600080fd5b5051600160a060020a039091166000908152600a60205260409020600301556005805461ff0019169055565b60085460ff1690565b33600160a060020a0316600035600160e060020a031916600160e060020a03191660003660405180806020018281038252848482818152602001925080828437600083820152604051601f909101601f19169092018290039550909350505050a2600554610100900460ff1615613b91576040805160e560020a62461bcd02815260206004820152600b60248201526000805160206156a0833981519152604482015290519081900360640190fd5b6005805461ff00191661010017905560065433600160a060020a0390911614613bf2576040805160e560020a62461bcd0281526020600482015260126024820152600080516020615720833981519152604482015290519081900360640190fd5b6006805473ffffffffffffffffffffffffffffffffffffffff1916600160a060020a03929092169190911790556005805461ff0019169055565b600554600090610100900460ff1615613c7d576040805160e560020a62461bcd02815260206004820152600b60248201526000805160206156a0833981519152604482015290519081900360640190fd5b50600b5490565b68056bc75e2d6310000081565b600554600090610100900460ff1615613ce2576040805160e560020a62461bcd02815260206004820152600b60248201526000805160206156a0833981519152604482015290519081900360640190fd5b600160a060020a0382166000908152600a602052604090205460ff16613d40576040805160e560020a62461bcd02815260206004820152600d6024820152600080516020615780833981519152604482015290519081900360640190fd5b50600160a060020a03166000908152600a602052604090206002015490565b60048054604080516020601f600260001961010060018816150201909516949094049384018190048102820181019092528281526060939092909183018282801561107b5780601f106110505761010080835404028352916020019161107b565b6704a03ce68d21555681565b7f42524f4e5a45000000000000000000000000000000000000000000000000000090565b600080613dfd878761515a565b90506000613e0b868661515a565b90506000613e19838361515a565b90506000613e3b670de0b6b3a7640000612630670de0b6b3a764000089614dee565b9050613e478282614d05565b9a9950505050505050505050565b6000613e62338484614f78565b50600192915050565b33600160a060020a0316600035600160e060020a031916600160e060020a03191660003660405180806020018281038252848482818152602001925080828437600083820152604051601f909101601f19169092018290039550909350505050a2600554610100900460ff1615613f1a576040805160e560020a62461bcd02815260206004820152600b60248201526000805160206156a0833981519152604482015290519081900360640190fd5b6005805461ff00191661010017905560085460ff16613f71576040805160e560020a62461bcd0281526020600482015260116024820152600080516020615680833981519152604482015290519081900360640190fd5b6000613f7b611392565b90506000613f8a856000614d05565b90506000613f988683614dee565b90506000613fa6828561515a565b905080613feb576040805160e560020a62461bcd02815260206004820152600f6024820152600080516020615820833981519152604482015290519081900360640190fd5b613ff53388614e5f565b60055461401190620100009004600160a060020a031684614e79565b61401a82614e6d565b60005b60095481101561418a5760006009828154811061403657fe5b6000918252602080832090910154600160a060020a0316808352600a90915260408220600301549092509061406b8583614d05565b9050806140b0576040805160e560020a62461bcd02815260206004820152600f6024820152600080516020615820833981519152604482015290519081900360640190fd5b8989858181106140bc57fe5b90506020020135811015614108576040805160e560020a62461bcd02815260206004820152600d6024820152600080516020615800833981519152604482015290519081900360640190fd5b600160a060020a0383166000908152600a602052604090206003015461412e9082614dee565b600160a060020a0384166000818152600a60209081526040918290206003019390935580518481529051919233926000805160206157a08339815191529281900390910190a361417f833383614e83565b50505060010161401d565b50506005805461ff0019169055505050505050565b600881565b600281565b600181565b6000806141bb878661515a565b905060006141d1670de0b6b3a764000085614dee565b90506141dd8582614d05565b905060006141ef8a6126308c85615082565b905060006141fd8285615296565b90506000614213670de0b6b3a764000083614dee565b905061421f8a82614d05565b9c9b505050505050505050505050565b600a670de0b6b3a76400006113a8565b671bc16d674ec7ffff81565b600554606090610100900460ff161561429c576040805160e560020a62461bcd02815260206004820152600b60248201526000805160206156a0833981519152604482015290519081900360640190fd5b60085460ff166142e4576040805160e560020a62461bcd0281526020600482015260116024820152600080516020615680833981519152604482015290519081900360640190fd5b600980548060200260200160405190810160405280929190818152602001828054801561107b57602002820191906000526020600020905b8154600160a060020a0316815260019091019060200180831161431c575050505050905090565b600081565b600554606090610100900460ff16156142e4576040805160e560020a62461bcd02815260206004820152600b60248201526000805160206156a0833981519152604482015290519081900360640190fd5b60095490565b33600160a060020a0316600035600160e060020a031916600160e060020a03191660003660405180806020018281038252848482818152602001925080828437600083820152604051601f909101601f19169092018290039550909350505050a2600554610100900460ff161561444e576040805160e560020a62461bcd02815260206004820152600b60248201526000805160206156a0833981519152604482015290519081900360640190fd5b6005805461ff00191661010017905560065433600160a060020a03909116146144af576040805160e560020a62461bcd0281526020600482015260126024820152600080516020615720833981519152604482015290519081900360640190fd5b600160a060020a0381166000908152600a602052604090205460ff1661450d576040805160e560020a62461bcd02815260206004820152600d6024820152600080516020615780833981519152604482015290519081900360640190fd5b60085460ff1615614556576040805160e560020a62461bcd02815260206004820152601060248201526000805160206157e0833981519152604482015290519081900360640190fd5b600160a060020a0381166000908152600a60205260408120600301549061457d8282614d05565b600b54600160a060020a0385166000908152600a60205260409020600201549192506145a891614dee565b600b55600160a060020a0383166000908152600a60205260409020600101546009805460001981019190829081106145dc57fe5b60009182526020909120015460098054600160a060020a03909216918490811061460257fe5b9060005260206000200160006101000a815481600160a060020a030219169083600160a060020a0316021790555081600a60006009858154811061464257fe5b6000918252602080832090910154600160a060020a03168352820192909252604001902060010155600980548061467557fe5b600082815260208082206000199084018101805473ffffffffffffffffffffffffffffffffffffffff191690559092019092556040805160808101825283815280830184815281830185815260608301868152600160a060020a038c168752600a909552929094209051815460ff1916901515178155925160018401555160028301555160039091015561470e8533611bdd8787614dee565b600554611c03908690620100009004600160a060020a031685614e83565b600554600090610100900460ff161561477d576040805160e560020a62461bcd02815260206004820152600b60248201526000805160206156a0833981519152604482015290519081900360640190fd5b5060075490565b336000908152600160209081526040808320600160a060020a03861684529091528120546147b29083615082565b336000818152600160209081526040808320600160a060020a0389168085529083529281902085905580519485525191936000805160206157c0833981519152929081900390910190a350600192915050565b600160a060020a03918216600090815260016020908152604080832093909416825291909152205490565b33600160a060020a0316600035600160e060020a031916600160e060020a03191660003660405180806020018281038252848482818152602001925080828437600083820152604051601f909101601f19169092018290039550909350505050a2600654600160a060020a031633146148e1576040805160e560020a62461bcd0281526020600482015260126024820152600080516020615720833981519152604482015290519081900360640190fd5b600160a060020a0383166000908152600a602052604090205460ff1615614952576040805160e560020a62461bcd02815260206004820152600c60248201527f4552525f49535f424f554e440000000000000000000000000000000000000000604482015290519081900360640190fd5b60085460ff161561499b576040805160e560020a62461bcd02815260206004820152601060248201526000805160206157e0833981519152604482015290519081900360640190fd5b6009546008116149f5576040805160e560020a62461bcd02815260206004820152600e60248201527f4552525f4d41585f544f4b454e53000000000000000000000000000000000000604482015290519081900360640190fd5b604080516080810182526001808252600980546020808501918252600085870181815260608701828152600160a060020a038c16808452600a9094529782209651875460ff1916901515178755925186860155915160028601559451600390940193909355805491820181559091527f6e1540171b6c0c960b71a7020d9f60077f6af931a8bbf590da0223dacf75c7af01805473ffffffffffffffffffffffffffffffffffffffff19169091179055614aaf8383836117c9565b505050565b6002670de0b6b3a76400006113a8565b600554600090610100900460ff1615614b15576040805160e560020a62461bcd02815260206004820152600b60248201526000805160206156a0833981519152604482015290519081900360640190fd5b600160a060020a0382166000908152600a602052604090205460ff16614b73576040805160e560020a62461bcd02815260206004820152600d6024820152600080516020615780833981519152604482015290519081900360640190fd5b600160a060020a0382166000908152600a6020526040902060020154600b54614b9d90829061515a565b9392505050565b600554600090610100900460ff1615614bf5576040805160e560020a62461bcd02815260206004820152600b60248201526000805160206156a0833981519152604482015290519081900360640190fd5b600160a060020a0382166000908152600a602052604090205460ff16614c53576040805160e560020a62461bcd02815260206004820152600d6024820152600080516020615780833981519152604482015290519081900360640190fd5b50600160a060020a03166000908152600a602052604090206003015490565b600080614c7f858861515a565b90506000614c8d8786614dee565b90506000614c9b888361515a565b90506000614ca98285615296565b9050614cbd81670de0b6b3a7640000614dee565b9050614cd1670de0b6b3a764000087614dee565b9450614ce6614ce08c83614d05565b8661515a565b9b9a5050505050505050505050565b60065460a060020a900460ff1690565b6000828202831580614d1f575082848281614d1c57fe5b04145b614d73576040805160e560020a62461bcd02815260206004820152601060248201527f4552525f4d554c5f4f564552464c4f5700000000000000000000000000000000604482015290519081900360640190fd5b6706f05b59d3b20000810181811015614dd6576040805160e560020a62461bcd02815260206004820152601060248201527f4552525f4d554c5f4f564552464c4f5700000000000000000000000000000000604482015290519081900360640190fd5b6000670de0b6b3a7640000825b049695505050505050565b6000806000614dfd85856153b9565b915091508015614e57576040805160e560020a62461bcd02815260206004820152601160248201527f4552525f5355425f554e444552464c4f57000000000000000000000000000000604482015290519081900360640190fd5b509392505050565b614e6982826153de565b5050565b614e76816153e9565b50565b614e6982826154b3565b604080517fa9059cbb000000000000000000000000000000000000000000000000000000008152600160a060020a03848116600483015260248201849052915160009286169163a9059cbb91604480830192602092919082900301818787803b158015614eef57600080fd5b505af1158015614f03573d6000803e3d6000fd5b505050506040513d6020811015614f1957600080fd5b5051905080614f72576040805160e560020a62461bcd02815260206004820152600f60248201527f4552525f45524332305f46414c53450000000000000000000000000000000000604482015290519081900360640190fd5b50505050565b600160a060020a038316600090815260208190526040902054811115614fe8576040805160e560020a62461bcd02815260206004820152601460248201527f4552525f494e53554646494349454e545f42414c000000000000000000000000604482015290519081900360640190fd5b600160a060020a03831660009081526020819052604090205461500b9082614dee565b600160a060020a03808516600090815260208190526040808220939093559084168152205461503a9082615082565b600160a060020a0380841660008181526020818152604091829020949094558051858152905191939287169260008051602061576083398151915292918290030190a3505050565b600082820183811015614b9d576040805160e560020a62461bcd02815260206004820152601060248201527f4552525f4144445f4f564552464c4f5700000000000000000000000000000000604482015290519081900360640190fd5b604080517f23b872dd000000000000000000000000000000000000000000000000000000008152600160a060020a0384811660048301523060248301526044820184905291516000928616916323b872dd91606480830192602092919082900301818787803b158015614eef57600080fd5b614e76816154be565b6000816151b1576040805160e560020a62461bcd02815260206004820152600c60248201527f4552525f4449565f5a45524f0000000000000000000000000000000000000000604482015290519081900360640190fd5b670de0b6b3a764000083028315806151d95750670de0b6b3a76400008482816151d657fe5b04145b61522d576040805160e560020a62461bcd02815260206004820152601060248201527f4552525f4449565f494e5445524e414c00000000000000000000000000000000604482015290519081900360640190fd5b6002830481018181101561528b576040805160e560020a62461bcd02815260206004820152601060248201527f4552525f4449565f494e5445524e414c00000000000000000000000000000000604482015290519081900360640190fd5b6000848281614de357fe5b600060018310156152f1576040805160e560020a62461bcd02815260206004820152601560248201527f4552525f42504f575f424153455f544f4f5f4c4f570000000000000000000000604482015290519081900360640190fd5b671bc16d674ec7ffff831115615351576040805160e560020a62461bcd02815260206004820152601660248201527f4552525f42504f575f424153455f544f4f5f4849474800000000000000000000604482015290519081900360640190fd5b600061535c83615521565b9050600061536a8483614dee565b905060006153808661537b8561553c565b61554a565b9050816153915792506110d4915050565b60006153a287846305f5e1006155a1565b90506153ae8282614d05565b979650505050505050565b6000808284106153cf57505080820360006153d7565b505081810360015b9250929050565b614e69823083614f78565b30600090815260208190526040902054811115615450576040805160e560020a62461bcd02815260206004820152601460248201527f4552525f494e53554646494349454e545f42414c000000000000000000000000604482015290519081900360640190fd5b3060009081526020819052604090205461546a9082614dee565b306000908152602081905260409020556002546154879082614dee565b60025560408051828152905160009130916000805160206157608339815191529181900360200190a350565b614e69308383614f78565b306000908152602081905260409020546154d89082615082565b306000908152602081905260409020556002546154f59082615082565b60025560408051828152905130916000916000805160206157608339815191529181900360200190a350565b6000670de0b6b3a76400006155358361553c565b0292915050565b670de0b6b3a7640000900490565b6000806002830661556357670de0b6b3a7640000615565565b835b90506002830492505b8215614b9d5761557e8485614d05565b93506002830615615596576155938185614d05565b90505b60028304925061556e565b60008281806155b887670de0b6b3a76400006153b9565b9092509050670de0b6b3a764000080600060015b888410615670576000670de0b6b3a7640000820290506000806156008a6155fb85670de0b6b3a7640000614dee565b6153b9565b91509150615612876137e9848c614d05565b965061561e878461515a565b96508661562d57505050615670565b8715615637579315935b8015615641579315935b8415615658576156518688614dee565b9550615665565b6156628688615082565b95505b5050506001016155cc565b5090999850505050505050505056fe4552525f4e4f545f46494e414c495a45440000000000000000000000000000004552525f5245454e5452590000000000000000000000000000000000000000004552525f4c494d49545f494e00000000000000000000000000000000000000004552525f4d41585f4f55545f524154494f00000000000000000000000000000063982df10efd8dfaaaa0fcc7f50b2d93b7cba26ccc48adee2873220d485dc39a4552525f4e4f545f434f4e54524f4c4c455200000000000000000000000000004552525f4d41585f494e5f524154494f00000000000000000000000000000000ddf252ad1be2c89b69c2b068fc378daa952ba7f163c4a11628f55a4df523b3ef4552525f4e4f545f424f554e4400000000000000000000000000000000000000e74c91552b64c2e2e7bd255639e004e693bd3e1d01cc33e65610b86afcc1ffed8c5be1e5ebec7d5bd14f71427d1e84f3dd0314c0f7b2291e5b200ac8c7c3b9254552525f49535f46494e414c495a4544000000000000000000000000000000004552525f4c494d49545f4f5554000000000000000000000000000000000000004552525f4d4154485f415050524f580000000000000000000000000000000000a265627a7a72315820588cd29fcb19e0787746d0439a4354e111e0f77b787a026ce5818b3a226ae07a64736f6c634300050c0032",
  "source": "// This program is free software: you can redistribute it and/or modify\n// it under the terms of the GNU General Public License as published by\n// the Free Software Foundation, either version 3 of the License, or\n// (at your option) any later version.\n\n// This program is distributed in the hope that it will be useful,\n// but WITHOUT ANY WARRANTY; without even the implied warranty of\n// MERCHANTABILITY or FITNESS FOR A PARTICULAR PURPOSE.  See the\n// GNU General Public License for more details.\n\n// You should have received a copy of the GNU General Public License\n// along with this program.  If not, see <http://www.gnu.org/licenses/>.\n\npragma solidity 0.5.12;\n\nimport \"./BToken.sol\";\nimport \"./BMath.sol\";\n\ncontract BPool is BBronze, BToken, BMath {\n\n    struct Record {\n        bool bound;   // is token bound to pool\n        uint index;   // private\n        uint denorm;  // denormalized weight\n        uint balance;\n    }\n\n    event LOG_SWAP(\n        address indexed caller,\n        address indexed tokenIn,\n        address indexed tokenOut,\n        uint256         tokenAmountIn,\n        uint256         tokenAmountOut\n    );\n    event LogUint(uint amount);\n\n    event LOG_JOIN(\n        address indexed caller,\n        address indexed tokenIn,\n        uint256         tokenAmountIn\n    );\n\n    event LOG_EXIT(\n        address indexed caller,\n        address indexed tokenOut,\n        uint256         tokenAmountOut\n    );\n\n    event LOG_CALL(\n        bytes4  indexed sig,\n        address indexed caller,\n        bytes           data\n    ) anonymous;\n\n    modifier _logs_() {\n        emit LOG_CALL(msg.sig, msg.sender, msg.data);\n        _;\n    }\n\n    modifier _lock_() {\n        require(!_mutex, \"ERR_REENTRY\");\n        _mutex = true;\n        _;\n        _mutex = false;\n    }\n\n    modifier _viewlock_() {\n        require(!_mutex, \"ERR_REENTRY\");\n        _;\n    }\n\n    bool private _mutex;\n\n    address private _factory;    // BFactory address to push token exitFee to\n    address private _controller; // has CONTROL role\n    bool private _publicSwap; // true if PUBLIC can call SWAP functions\n\n    // `setSwapFee` and `finalize` require CONTROL\n    // `finalize` sets `PUBLIC can SWAP`, `PUBLIC can JOIN`\n    uint private _swapFee;\n    bool private _finalized;\n\n    address[] private _tokens;\n    mapping(address=>Record) private  _records;\n    uint private _totalWeight;\n\n    constructor() public {\n        _controller = msg.sender;\n        _factory = msg.sender;\n        _swapFee = MIN_FEE;\n        _publicSwap = false;\n        _finalized = false;\n    }\n\n    function isPublicSwap()\n        external view\n        returns (bool)\n    {\n        return _publicSwap;\n    }\n\n    function isFinalized()\n        external view\n        returns (bool)\n    {\n        return _finalized;\n    }\n\n    function isBound(address t)\n        external view\n        returns (bool)\n    {\n        return _records[t].bound;\n    }\n\n    function getNumTokens()\n        external view\n        returns (uint) \n    {\n        return _tokens.length;\n    }\n\n    function getCurrentTokens()\n        external view _viewlock_\n        returns (address[] memory tokens)\n    {\n        return _tokens;\n    }\n\n    function getFinalTokens()\n        external view\n        _viewlock_\n        returns (address[] memory tokens)\n    {\n        require(_finalized, \"ERR_NOT_FINALIZED\");\n        return _tokens;\n    }\n\n    function getDenormalizedWeight(address token)\n        external view\n        _viewlock_\n        returns (uint)\n    {\n\n        require(_records[token].bound, \"ERR_NOT_BOUND\");\n        return _records[token].denorm;\n    }\n\n    function getTotalDenormalizedWeight()\n        external view\n        _viewlock_\n        returns (uint)\n    {\n        return _totalWeight;\n    }\n\n    function getNormalizedWeight(address token)\n        external view\n        _viewlock_\n        returns (uint)\n    {\n\n        require(_records[token].bound, \"ERR_NOT_BOUND\");\n        uint denorm = _records[token].denorm;\n        return bdiv(denorm, _totalWeight);\n    }\n\n    function getBalance(address token)\n        external view\n        _viewlock_\n        returns (uint)\n    {\n\n        require(_records[token].bound, \"ERR_NOT_BOUND\");\n        return _records[token].balance;\n    }\n\n    function getSwapFee()\n        external view\n        _viewlock_\n        returns (uint)\n    {\n        return _swapFee;\n    }\n\n    function getController()\n        external view\n        _viewlock_\n        returns (address)\n    {\n        return _controller;\n    }\n\n    function setSwapFee(uint swapFee)\n        external\n        _logs_\n        _lock_\n    { \n        require(!_finalized, \"ERR_IS_FINALIZED\");\n        require(msg.sender == _controller, \"ERR_NOT_CONTROLLER\");\n        require(swapFee >= MIN_FEE, \"ERR_MIN_FEE\");\n        require(swapFee <= MAX_FEE, \"ERR_MAX_FEE\");\n        _swapFee = swapFee;\n    }\n\n    function setController(address manager)\n        external\n        _logs_\n        _lock_\n    {\n        require(msg.sender == _controller, \"ERR_NOT_CONTROLLER\");\n        _controller = manager;\n    }\n\n    function setPublicSwap(bool public_)\n        external\n        _logs_\n        _lock_\n    {\n        require(!_finalized, \"ERR_IS_FINALIZED\");\n        require(msg.sender == _controller, \"ERR_NOT_CONTROLLER\");\n        _publicSwap = public_;\n    }\n\n    function finalize()\n        external\n        _logs_\n        _lock_\n    {\n        require(msg.sender == _controller, \"ERR_NOT_CONTROLLER\");\n        require(!_finalized, \"ERR_IS_FINALIZED\");\n        require(_tokens.length >= MIN_BOUND_TOKENS, \"ERR_MIN_TOKENS\");\n\n        _finalized = true;\n        _publicSwap = true;\n\n        _mintPoolShare(INIT_POOL_SUPPLY);\n        _pushPoolShare(msg.sender, INIT_POOL_SUPPLY);\n    }\n\n\n    function bind(address token, uint balance, uint denorm)\n        external\n        _logs_\n        // _lock_  Bind does not lock because it jumps to `rebind`, which does\n    {\n        require(msg.sender == _controller, \"ERR_NOT_CONTROLLER\");\n        require(!_records[token].bound, \"ERR_IS_BOUND\");\n        require(!_finalized, \"ERR_IS_FINALIZED\");\n\n        require(_tokens.length < MAX_BOUND_TOKENS, \"ERR_MAX_TOKENS\");\n\n        _records[token] = Record({\n            bound: true,\n            index: _tokens.length,\n            denorm: 0,    // balance and denorm will be validated\n            balance: 0   // and set by `rebind`\n        });\n        _tokens.push(token);\n        rebind(token, balance, denorm);\n    }\n\n    function rebind(address token, uint balance, uint denorm)\n        public\n        _logs_\n        _lock_\n    {\n\n        require(msg.sender == _controller, \"ERR_NOT_CONTROLLER\");\n        require(_records[token].bound, \"ERR_NOT_BOUND\");\n        require(!_finalized, \"ERR_IS_FINALIZED\");\n\n        require(denorm >= MIN_WEIGHT, \"ERR_MIN_WEIGHT\");\n        require(denorm <= MAX_WEIGHT, \"ERR_MAX_WEIGHT\");\n        require(balance >= MIN_BALANCE, \"ERR_MIN_BALANCE\");\n\n        // Adjust the denorm and totalWeight\n        uint oldWeight = _records[token].denorm;\n        if (denorm > oldWeight) {\n            _totalWeight = badd(_totalWeight, bsub(denorm, oldWeight));\n            require(_totalWeight <= MAX_TOTAL_WEIGHT, \"ERR_MAX_TOTAL_WEIGHT\");\n        } else if (denorm < oldWeight) {\n            _totalWeight = bsub(_totalWeight, bsub(oldWeight, denorm));\n        }        \n        _records[token].denorm = denorm;\n\n        // Adjust the balance record and actual token balance\n        uint oldBalance = _records[token].balance;\n        _records[token].balance = balance;\n        if (balance > oldBalance) {\n            _pullUnderlying(token, msg.sender, bsub(balance, oldBalance));\n        } else if (balance < oldBalance) {\n            // In this case liquidity is being withdrawn, so charge EXIT_FEE\n            uint tokenBalanceWithdrawn = bsub(oldBalance, balance);\n            uint tokenExitFee = bmul(tokenBalanceWithdrawn, EXIT_FEE);\n            _pushUnderlying(token, msg.sender, bsub(tokenBalanceWithdrawn, tokenExitFee));\n            _pushUnderlying(token, _factory, tokenExitFee);\n        }\n    }\n\n    function unbind(address token)\n        external\n        _logs_\n        _lock_\n    {\n\n        require(msg.sender == _controller, \"ERR_NOT_CONTROLLER\");\n        require(_records[token].bound, \"ERR_NOT_BOUND\");\n        require(!_finalized, \"ERR_IS_FINALIZED\");\n\n        uint tokenBalance = _records[token].balance;\n        uint tokenExitFee = bmul(tokenBalance, EXIT_FEE);\n\n        _totalWeight = bsub(_totalWeight, _records[token].denorm);\n\n        // Swap the token-to-unbind with the last token,\n        // then delete the last token\n        uint index = _records[token].index;\n        uint last = _tokens.length - 1;\n        _tokens[index] = _tokens[last];\n        _records[_tokens[index]].index = index;\n        _tokens.pop();\n        _records[token] = Record({\n            bound: false,\n            index: 0,\n            denorm: 0,\n            balance: 0\n        });\n\n        _pushUnderlying(token, msg.sender, bsub(tokenBalance, tokenExitFee));\n        _pushUnderlying(token, _factory, tokenExitFee);\n    }\n\n    // Absorb any tokens that have been sent to this contract into the pool\n    function gulp(address token)\n        external\n        _logs_\n        _lock_\n    {\n        require(_records[token].bound, \"ERR_NOT_BOUND\");\n        _records[token].balance = IERC20(token).balanceOf(address(this));\n    }\n\n    function getSpotPrice(address tokenIn, address tokenOut)\n        external view\n        _viewlock_\n        returns (uint spotPrice)\n    {\n        require(_records[tokenIn].bound, \"ERR_NOT_BOUND\");\n        require(_records[tokenOut].bound, \"ERR_NOT_BOUND\");\n        Record storage inRecord = _records[tokenIn];\n        Record storage outRecord = _records[tokenOut];\n        return calcSpotPrice(inRecord.balance, inRecord.denorm, outRecord.balance, outRecord.denorm, _swapFee);\n    }\n\n    function getSpotPriceSansFee(address tokenIn, address tokenOut)\n        external view\n        _viewlock_\n        returns (uint spotPrice)\n    {\n        require(_records[tokenIn].bound, \"ERR_NOT_BOUND\");\n        require(_records[tokenOut].bound, \"ERR_NOT_BOUND\");\n        Record storage inRecord = _records[tokenIn];\n        Record storage outRecord = _records[tokenOut];\n        return calcSpotPrice(inRecord.balance, inRecord.denorm, outRecord.balance, outRecord.denorm, 0);\n    }\n\n    function joinPool(uint poolAmountOut, uint[] calldata maxAmountsIn)\n        external\n        _logs_\n        _lock_\n    {\n        require(_finalized, \"ERR_NOT_FINALIZED\");\n\n        uint poolTotal = totalSupply();\n        uint ratio = bdiv(poolAmountOut, poolTotal);\n        require(ratio != 0, \"ERR_MATH_APPROX\");\n\n        for (uint i = 0; i < _tokens.length; i++) {\n            address t = _tokens[i];\n            uint bal = _records[t].balance;\n            uint tokenAmountIn = bmul(ratio, bal);\n            require(tokenAmountIn != 0, \"ERR_MATH_APPROX\");\n            require(tokenAmountIn <= maxAmountsIn[i], \"ERR_LIMIT_IN\");\n            _records[t].balance = badd(_records[t].balance, tokenAmountIn);\n            emit LOG_JOIN(msg.sender, t, tokenAmountIn);\n            _pullUnderlying(t, msg.sender, tokenAmountIn);\n        }\n        _mintPoolShare(poolAmountOut);\n        _pushPoolShare(msg.sender, poolAmountOut);\n    }\n\n    function exitPool(uint poolAmountIn, uint[] calldata minAmountsOut)\n        external\n        _logs_\n        _lock_\n    {\n        require(_finalized, \"ERR_NOT_FINALIZED\");\n\n        uint poolTotal = totalSupply();\n        uint exitFee = bmul(poolAmountIn, EXIT_FEE);\n        uint pAiAfterExitFee = bsub(poolAmountIn, exitFee);\n        uint ratio = bdiv(pAiAfterExitFee, poolTotal);\n        require(ratio != 0, \"ERR_MATH_APPROX\");\n\n        _pullPoolShare(msg.sender, poolAmountIn);\n        _pushPoolShare(_factory, exitFee);\n        _burnPoolShare(pAiAfterExitFee);\n\n        for (uint i = 0; i < _tokens.length; i++) {\n            address t = _tokens[i];\n            uint bal = _records[t].balance;\n            uint tokenAmountOut = bmul(ratio, bal);\n            require(tokenAmountOut != 0, \"ERR_MATH_APPROX\");\n            require(tokenAmountOut >= minAmountsOut[i], \"ERR_LIMIT_OUT\");\n            _records[t].balance = bsub(_records[t].balance, tokenAmountOut);\n            emit LOG_EXIT(msg.sender, t, tokenAmountOut);\n            _pushUnderlying(t, msg.sender, tokenAmountOut);\n        }\n\n    }\n\n\n    function swapExactAmountIn(\n        address tokenIn,\n        uint tokenAmountIn,\n        address tokenOut,\n        uint minAmountOut,\n        uint maxPrice\n    )\n        external\n        _logs_\n        _lock_\n        returns (uint tokenAmountOut, uint spotPriceAfter)\n    {\n\n        require(_records[tokenIn].bound, \"ERR_NOT_BOUND\");\n        require(_records[tokenOut].bound, \"ERR_NOT_BOUND\");\n        require(_publicSwap, \"ERR_SWAP_NOT_PUBLIC\");\n\n        Record storage inRecord = _records[address(tokenIn)];\n        Record storage outRecord = _records[address(tokenOut)];\n\n        require(tokenAmountIn <= bmul(inRecord.balance, MAX_IN_RATIO), \"ERR_MAX_IN_RATIO\");\n\n        uint spotPriceBefore = calcSpotPrice(\n                                    inRecord.balance,\n                                    inRecord.denorm,\n                                    outRecord.balance,\n                                    outRecord.denorm,\n                                    _swapFee\n                                );\n\n        require(spotPriceBefore <= maxPrice, \"ERR_BAD_LIMIT_PRICE\");\n\n        tokenAmountOut = calcOutGivenIn(\n                            inRecord.balance,\n                            inRecord.denorm,\n                            outRecord.balance,\n                            outRecord.denorm,\n                            tokenAmountIn,\n                            _swapFee\n                        );\n        require(tokenAmountOut >= minAmountOut, \"ERR_LIMIT_OUT\");\n\n        inRecord.balance = badd(inRecord.balance, tokenAmountIn);\n        outRecord.balance = bsub(outRecord.balance, tokenAmountOut);\n\n        spotPriceAfter = calcSpotPrice(\n                                inRecord.balance,\n                                inRecord.denorm,\n                                outRecord.balance,\n                                outRecord.denorm,\n                                _swapFee\n                            );\n        require(spotPriceAfter >= spotPriceBefore, \"ERR_MATH_APPROX\");     \n        require(spotPriceAfter <= maxPrice, \"ERR_LIMIT_PRICE\");\n        require(spotPriceBefore <= bdiv(tokenAmountIn, tokenAmountOut), \"ERR_MATH_APPROX\");\n\n        emit LOG_SWAP(msg.sender, tokenIn, tokenOut, tokenAmountIn, tokenAmountOut);\n\n        _pullUnderlying(tokenIn, msg.sender, tokenAmountIn);\n        _pushUnderlying(tokenOut, msg.sender, tokenAmountOut);\n\n        return (tokenAmountOut, spotPriceAfter);\n    }\n\n    function swapExactAmountOut(\n        address tokenIn,\n        uint maxAmountIn,\n        address tokenOut,\n        uint tokenAmountOut,\n        uint maxPrice\n    )\n        external\n        _logs_\n        _lock_ \n        returns (uint tokenAmountIn, uint spotPriceAfter)\n    {\n        require(_records[tokenIn].bound, \"ERR_NOT_BOUND\");\n        require(_records[tokenOut].bound, \"ERR_NOT_BOUND\");\n        require(_publicSwap, \"ERR_SWAP_NOT_PUBLIC\");\n\n        Record storage inRecord = _records[address(tokenIn)];\n        Record storage outRecord = _records[address(tokenOut)];\n\n        require(tokenAmountOut <= bmul(outRecord.balance, MAX_OUT_RATIO), \"ERR_MAX_OUT_RATIO\");\n\n        uint spotPriceBefore = calcSpotPrice(\n                                    inRecord.balance,\n                                    inRecord.denorm,\n                                    outRecord.balance,\n                                    outRecord.denorm,\n                                    _swapFee\n                                );\n        require(spotPriceBefore <= maxPrice, \"ERR_BAD_LIMIT_PRICE\");\n\n        tokenAmountIn = calcInGivenOut(\n                            inRecord.balance,\n                            inRecord.denorm,\n                            outRecord.balance,\n                            outRecord.denorm,\n                            tokenAmountOut,\n                            _swapFee\n                        );\n        require(tokenAmountIn <= maxAmountIn, \"ERR_LIMIT_IN\");\n\n        inRecord.balance = badd(inRecord.balance, tokenAmountIn);\n        outRecord.balance = bsub(outRecord.balance, tokenAmountOut);\n\n        spotPriceAfter = calcSpotPrice(\n                                inRecord.balance,\n                                inRecord.denorm,\n                                outRecord.balance,\n                                outRecord.denorm,\n                                _swapFee\n                            );\n        require(spotPriceAfter >= spotPriceBefore, \"ERR_MATH_APPROX\");\n        require(spotPriceAfter <= maxPrice, \"ERR_LIMIT_PRICE\");\n        require(spotPriceBefore <= bdiv(tokenAmountIn, tokenAmountOut), \"ERR_MATH_APPROX\");\n\n        emit LOG_SWAP(msg.sender, tokenIn, tokenOut, tokenAmountIn, tokenAmountOut);\n\n        _pullUnderlying(tokenIn, msg.sender, tokenAmountIn);\n        _pushUnderlying(tokenOut, msg.sender, tokenAmountOut);\n\n        return (tokenAmountIn, spotPriceAfter);\n    }\n\n\n    function joinswapExternAmountIn(address tokenIn, uint tokenAmountIn, uint minPoolAmountOut)\n        external\n        _logs_\n        _lock_\n        returns (uint poolAmountOut)\n\n    {        \n        require(_finalized, \"ERR_NOT_FINALIZED\");\n        require(_records[tokenIn].bound, \"ERR_NOT_BOUND\");\n        require(tokenAmountIn <= bmul(_records[tokenIn].balance, MAX_IN_RATIO), \"ERR_MAX_IN_RATIO\");\n\n        Record storage inRecord = _records[tokenIn];\n\n        poolAmountOut = calcPoolOutGivenSingleIn(\n                            inRecord.balance,\n                            inRecord.denorm,\n                            _totalSupply,\n                            _totalWeight,\n                            tokenAmountIn,\n                            _swapFee\n                        );\n\n        require(poolAmountOut >= minPoolAmountOut, \"ERR_LIMIT_OUT\");\n\n        inRecord.balance = badd(inRecord.balance, tokenAmountIn);\n\n        emit LOG_JOIN(msg.sender, tokenIn, tokenAmountIn);\n\n        _mintPoolShare(poolAmountOut);\n        _pushPoolShare(msg.sender, poolAmountOut);\n        _pullUnderlying(tokenIn, msg.sender, tokenAmountIn);\n\n        return poolAmountOut;\n    }\n\n    function joinswapPoolAmountOut(address tokenIn, uint poolAmountOut, uint maxAmountIn)\n        external\n        _logs_\n        _lock_\n        returns (uint tokenAmountIn)\n    {\n        require(_finalized, \"ERR_NOT_FINALIZED\");\n        require(_records[tokenIn].bound, \"ERR_NOT_BOUND\");\n\n        Record storage inRecord = _records[tokenIn];\n\n        tokenAmountIn = calcSingleInGivenPoolOut(\n                            inRecord.balance,\n                            inRecord.denorm,\n                            _totalSupply,\n                            _totalWeight,\n                            poolAmountOut,\n                            _swapFee\n                        );\n\n        require(tokenAmountIn != 0, \"ERR_MATH_APPROX\");\n        require(tokenAmountIn <= maxAmountIn, \"ERR_LIMIT_IN\");\n        \n        require(tokenAmountIn <= bmul(_records[tokenIn].balance, MAX_IN_RATIO), \"ERR_MAX_IN_RATIO\");\n\n        inRecord.balance = badd(inRecord.balance, tokenAmountIn);\n\n        emit LOG_JOIN(msg.sender, tokenIn, tokenAmountIn);\n\n        _mintPoolShare(poolAmountOut);\n        _pushPoolShare(msg.sender, poolAmountOut);\n        _pullUnderlying(tokenIn, msg.sender, tokenAmountIn);\n\n        return tokenAmountIn;\n    }\n\n    function exitswapPoolAmountIn(address tokenOut, uint poolAmountIn, uint minAmountOut)\n        external\n        _logs_\n        _lock_\n        returns (uint tokenAmountOut)\n    {\n        require(_finalized, \"ERR_NOT_FINALIZED\");\n        require(_records[tokenOut].bound, \"ERR_NOT_BOUND\");\n\n        Record storage outRecord = _records[tokenOut];\n\n        tokenAmountOut = calcSingleOutGivenPoolIn(\n                            outRecord.balance,\n                            outRecord.denorm,\n                            _totalSupply,\n                            _totalWeight,\n                            poolAmountIn,\n                            _swapFee\n                        );\n\n        require(tokenAmountOut >= minAmountOut, \"ERR_LIMIT_OUT\");\n        \n        require(tokenAmountOut <= bmul(_records[tokenOut].balance, MAX_OUT_RATIO), \"ERR_MAX_OUT_RATIO\");\n\n        outRecord.balance = bsub(outRecord.balance, tokenAmountOut);\n\n        uint exitFee = bmul(poolAmountIn, EXIT_FEE);\n\n        emit LOG_EXIT(msg.sender, tokenOut, tokenAmountOut);\n\n        _pullPoolShare(msg.sender, poolAmountIn);\n        _burnPoolShare(bsub(poolAmountIn, exitFee));\n        _pushPoolShare(_factory, exitFee);\n        _pushUnderlying(tokenOut, msg.sender, tokenAmountOut);\n\n        return tokenAmountOut;\n    }\n\n    function exitswapExternAmountOut(address tokenOut, uint tokenAmountOut, uint maxPoolAmountIn)\n        external\n        _logs_\n        _lock_\n        returns (uint poolAmountIn)\n    {\n        require(_finalized, \"ERR_NOT_FINALIZED\");\n        require(_records[tokenOut].bound, \"ERR_NOT_BOUND\");\n        require(tokenAmountOut <= bmul(_records[tokenOut].balance, MAX_OUT_RATIO), \"ERR_MAX_OUT_RATIO\");\n\n        Record storage outRecord = _records[tokenOut];\n\n        poolAmountIn = calcPoolInGivenSingleOut(\n                            outRecord.balance,\n                            outRecord.denorm,\n                            _totalSupply,\n                            _totalWeight,\n                            tokenAmountOut,\n                            _swapFee\n                        );\n\n        require(poolAmountIn != 0, \"ERR_MATH_APPROX\");\n        require(poolAmountIn <= maxPoolAmountIn, \"ERR_LIMIT_IN\");\n\n        outRecord.balance = bsub(outRecord.balance, tokenAmountOut);\n\n        uint exitFee = bmul(poolAmountIn, EXIT_FEE);\n\n        emit LOG_EXIT(msg.sender, tokenOut, tokenAmountOut);\n\n        _pullPoolShare(msg.sender, poolAmountIn);\n        _burnPoolShare(bsub(poolAmountIn, exitFee));\n        _pushPoolShare(_factory, exitFee);\n        _pushUnderlying(tokenOut, msg.sender, tokenAmountOut);        \n\n        return poolAmountIn;\n    }\n\n\n    // ==\n    // 'Underlying' token-manipulation functions make external calls but are NOT locked\n    // You must `_lock_` or otherwise ensure reentry-safety\n\n    function _pullUnderlying(address erc20, address from, uint amount)\n        internal\n    {\n        bool xfer = IERC20(erc20).transferFrom(from, address(this), amount);\n        require(xfer, \"ERR_ERC20_FALSE\");\n    }\n\n    function _pushUnderlying(address erc20, address to, uint amount)\n        internal\n    {\n        bool xfer = IERC20(erc20).transfer(to, amount);\n        require(xfer, \"ERR_ERC20_FALSE\");\n    }\n\n    function _pullPoolShare(address from, uint amount)\n        internal\n    {\n        _pull(from, amount);\n    }\n\n    function _pushPoolShare(address to, uint amount)\n        internal\n    {\n        _push(to, amount);\n    }\n\n    function _mintPoolShare(uint amount)\n        internal\n    {\n        _mint(amount);\n    }\n\n    function _burnPoolShare(uint amount)\n        internal\n    {\n        _burn(amount);\n    }\n\n}\n",
  "sourcePath": "/home/dr-manhattan/workspace/balancer-core/contracts/BPool.sol",
  "compiler": {
    "name": "solc",
    "version": "0.5.12+commit.7709ece9.Emscripten.clang"
  },
  "schemaVersion": "3.3.2",
  "updatedAt": "2020-12-29T18:04:58.965Z",
  "devdoc": {
    "methods": {}
  },
  "userdoc": {
    "methods": {
      "calcInGivenOut(uint256,uint256,uint256,uint256,uint256,uint256)": {
        "notice": "******************************************************************************************** // calcInGivenOut                                                                            // // aI = tokenAmountIn                                                                        // // bO = tokenBalanceOut               /  /     bO      \\    (wO / wI)      \\                 // // bI = tokenBalanceIn          bI * |  | ------------  | ^            - 1  |                // // aO = tokenAmountOut    aI =        \\  \\ ( bO - aO ) /                   /                 // // wI = tokenWeightIn           --------------------------------------------                 // // wO = tokenWeightOut                          ( 1 - sF )                                   // // sF = swapFee                                                                              //*********************************************************************************************"
      },
      "calcOutGivenIn(uint256,uint256,uint256,uint256,uint256,uint256)": {
        "notice": "******************************************************************************************** // calcOutGivenIn                                                                            // // aO = tokenAmountOut                                                                       // // bO = tokenBalanceOut                                                                      // // bI = tokenBalanceIn              /      /            bI             \\    (wI / wO) \\      // // aI = tokenAmountIn    aO = bO * |  1 - | --------------------------  | ^            |     // // wI = tokenWeightIn               \\      \\ ( bI + ( aI * ( 1 - sF )) /              /      // // wO = tokenWeightOut                                                                       // // sF = swapFee                                                                              //*********************************************************************************************"
      },
      "calcPoolInGivenSingleOut(uint256,uint256,uint256,uint256,uint256,uint256)": {
        "notice": "******************************************************************************************** // calcPoolInGivenSingleOut                                                                  // // pAi = poolAmountIn               // /               tAo             \\\\     / wO \\     \\   // // bO = tokenBalanceOut            // | bO - -------------------------- |\\   | ---- |     \\  // // tAo = tokenAmountOut      pS - ||   \\     1 - ((1 - (tO / tW)) * sF)/  | ^ \\ tW /  * pS | // // ps = poolSupply                 \\\\ -----------------------------------/                /  // // wO = tokenWeightOut  pAi =       \\\\               bO                 /                /   // // tW = totalWeight           -------------------------------------------------------------  // // sF = swapFee                                        ( 1 - eF )                            // // eF = exitFee                                                                              //*********************************************************************************************"
      },
      "calcPoolOutGivenSingleIn(uint256,uint256,uint256,uint256,uint256,uint256)": {
        "notice": "******************************************************************************************** // calcPoolOutGivenSingleIn                                                                  // // pAo = poolAmountOut         /                                              \\              // // tAi = tokenAmountIn        ///      /     //    wI \\      \\\\       \\     wI \\             // // wI = tokenWeightIn        //| tAi *| 1 - || 1 - --  | * sF || + tBi \\    --  \\            // // tW = totalWeight     pAo=||  \\      \\     \\\\    tW /      //         | ^ tW   | * pS - pS // // tBi = tokenBalanceIn      \\\\  ------------------------------------- /        /            // // pS = poolSupply            \\\\                    tBi               /        /             // // sF = swapFee                \\                                              /              //*********************************************************************************************"
      },
      "calcSingleInGivenPoolOut(uint256,uint256,uint256,uint256,uint256,uint256)": {
        "notice": "******************************************************************************************** // calcSingleInGivenPoolOut                                                                  // // tAi = tokenAmountIn              //(pS + pAo)\\     /    1    \\\\                           // // pS = poolSupply                 || ---------  | ^ | --------- || * bI - bI                // // pAo = poolAmountOut              \\\\    pS    /     \\(wI / tW)//                           // // bI = balanceIn          tAi =  --------------------------------------------               // // wI = weightIn                              /      wI  \\                                   // // tW = totalWeight                          |  1 - ----  |  * sF                            // // sF = swapFee                               \\      tW  /                                   //*********************************************************************************************"
      },
      "calcSingleOutGivenPoolIn(uint256,uint256,uint256,uint256,uint256,uint256)": {
        "notice": "******************************************************************************************** // calcSingleOutGivenPoolIn                                                                  // // tAo = tokenAmountOut            /      /                                             \\\\   // // bO = tokenBalanceOut           /      // pS - (pAi * (1 - eF)) \\     /    1    \\      \\\\  // // pAi = poolAmountIn            | bO - || ----------------------- | ^ | --------- | * b0 || // // ps = poolSupply                \\      \\\\          pS           /     \\(wO / tW)/      //  // // wI = tokenWeightIn      tAo =   \\      \\                                             //   // // tW = totalWeight                    /     /      wO \\       \\                             // // sF = swapFee                    *  | 1 - |  1 - ---- | * sF  |                            // // eF = exitFee                        \\     \\      tW /       /                             //*********************************************************************************************"
      },
      "calcSpotPrice(uint256,uint256,uint256,uint256,uint256)": {
        "notice": "******************************************************************************************** // calcSpotPrice                                                                             // // sP = spotPrice                                                                            // // bI = tokenBalanceIn                ( bI / wI )         1                                  // // bO = tokenBalanceOut         sP =  -----------  *  ----------                             // // wI = tokenWeightIn                 ( bO / wO )     ( 1 - sF )                             // // wO = tokenWeightOut                                                                       // // sF = swapFee                                                                              //*********************************************************************************************"
      }
    }
  }
}